{
	"IdentityManagement.sol": {
		"IdentityManagement": {
			"abi": [
				{
					"inputs": [],
					"stateMutability": "nonpayable",
					"type": "constructor"
				},
				{
					"anonymous": false,
					"inputs": [
						{
							"indexed": true,
							"internalType": "address",
							"name": "user",
							"type": "address"
						},
						{
							"indexed": false,
							"internalType": "string",
							"name": "name",
							"type": "string"
						}
					],
					"name": "IdentityRegistered",
					"type": "event"
				},
				{
					"anonymous": false,
					"inputs": [
						{
							"indexed": true,
							"internalType": "address",
							"name": "user",
							"type": "address"
						},
						{
							"indexed": true,
							"internalType": "address",
							"name": "verifier",
							"type": "address"
						}
					],
					"name": "IdentityRevoked",
					"type": "event"
				},
				{
					"anonymous": false,
					"inputs": [
						{
							"indexed": true,
							"internalType": "address",
							"name": "user",
							"type": "address"
						},
						{
							"indexed": true,
							"internalType": "address",
							"name": "verifier",
							"type": "address"
						}
					],
					"name": "IdentityVerified",
					"type": "event"
				},
				{
					"anonymous": false,
					"inputs": [
						{
							"indexed": true,
							"internalType": "address",
							"name": "verifier",
							"type": "address"
						}
					],
					"name": "VerifierAdded",
					"type": "event"
				},
				{
					"anonymous": false,
					"inputs": [
						{
							"indexed": true,
							"internalType": "address",
							"name": "verifier",
							"type": "address"
						}
					],
					"name": "VerifierRemoved",
					"type": "event"
				},
				{
					"inputs": [
						{
							"internalType": "address",
							"name": "_verifier",
							"type": "address"
						}
					],
					"name": "addVerifier",
					"outputs": [],
					"stateMutability": "nonpayable",
					"type": "function"
				},
				{
					"inputs": [],
					"name": "contractOwner",
					"outputs": [
						{
							"internalType": "address",
							"name": "",
							"type": "address"
						}
					],
					"stateMutability": "view",
					"type": "function"
				},
				{
					"inputs": [
						{
							"internalType": "address",
							"name": "_user",
							"type": "address"
						}
					],
					"name": "getIdentity",
					"outputs": [
						{
							"internalType": "string",
							"name": "name",
							"type": "string"
						},
						{
							"internalType": "string",
							"name": "email",
							"type": "string"
						},
						{
							"internalType": "bool",
							"name": "isVerified",
							"type": "bool"
						},
						{
							"internalType": "bool",
							"name": "isRevoked",
							"type": "bool"
						}
					],
					"stateMutability": "view",
					"type": "function"
				},
				{
					"inputs": [
						{
							"internalType": "string",
							"name": "_name",
							"type": "string"
						},
						{
							"internalType": "string",
							"name": "_email",
							"type": "string"
						},
						{
							"internalType": "string",
							"name": "_verificationDocument",
							"type": "string"
						}
					],
					"name": "registerIdentity",
					"outputs": [],
					"stateMutability": "nonpayable",
					"type": "function"
				},
				{
					"inputs": [
						{
							"internalType": "address",
							"name": "_verifier",
							"type": "address"
						}
					],
					"name": "removeVerifier",
					"outputs": [],
					"stateMutability": "nonpayable",
					"type": "function"
				},
				{
					"inputs": [
						{
							"internalType": "address",
							"name": "_user",
							"type": "address"
						}
					],
					"name": "verifyIdentity",
					"outputs": [],
					"stateMutability": "nonpayable",
					"type": "function"
				}
			],
			"devdoc": {
				"kind": "dev",
				"methods": {},
				"version": 1
			},
			"evm": {
				"assembly": "    /* \"IdentityManagement.sol\":60:3397  contract IdentityManagement {... */\n  mstore(0x40, 0x80)\n    /* \"IdentityManagement.sol\":1566:1625  constructor() {... */\n  callvalue\n  dup1\n  iszero\n  tag_1\n  jumpi\n  0x00\n  dup1\n  revert\ntag_1:\n  pop\n    /* \"IdentityManagement.sol\":1607:1617  msg.sender */\n  caller\n    /* \"IdentityManagement.sol\":1591:1604  contractOwner */\n  0x00\n  dup1\n    /* \"IdentityManagement.sol\":1591:1617  contractOwner = msg.sender */\n  0x0100\n  exp\n  dup2\n  sload\n  dup2\n  0xffffffffffffffffffffffffffffffffffffffff\n  mul\n  not\n  and\n  swap1\n  dup4\n  0xffffffffffffffffffffffffffffffffffffffff\n  and\n  mul\n  or\n  swap1\n  sstore\n  pop\n    /* \"IdentityManagement.sol\":60:3397  contract IdentityManagement {... */\n  dataSize(sub_0)\n  dup1\n  dataOffset(sub_0)\n  0x00\n  codecopy\n  0x00\n  return\nstop\n\nsub_0: assembly {\n        /* \"IdentityManagement.sol\":60:3397  contract IdentityManagement {... */\n      mstore(0x40, 0x80)\n      callvalue\n      dup1\n      iszero\n      tag_1\n      jumpi\n      0x00\n      dup1\n      revert\n    tag_1:\n      pop\n      jumpi(tag_2, lt(calldatasize, 0x04))\n      shr(0xe0, calldataload(0x00))\n      dup1\n      0x2fea7b81\n      eq\n      tag_3\n      jumpi\n      dup1\n      0x9000b3d6\n      eq\n      tag_4\n      jumpi\n      dup1\n      0xb5b90fd9\n      eq\n      tag_5\n      jumpi\n      dup1\n      0xbdc95b32\n      eq\n      tag_6\n      jumpi\n      dup1\n      0xca2dfd0a\n      eq\n      tag_7\n      jumpi\n      dup1\n      0xce606ee0\n      eq\n      tag_8\n      jumpi\n    tag_2:\n      0x00\n      dup1\n      revert\n        /* \"IdentityManagement.sol\":2603:2856  function getIdentity(address _user) public view returns(string memory name, string memory email, bool isVerified, bool isRevoked) {... */\n    tag_3:\n      tag_9\n      0x04\n      dup1\n      calldatasize\n      sub\n      dup2\n      add\n      swap1\n      tag_10\n      swap2\n      swap1\n      tag_11\n      jump\t// in\n    tag_10:\n      tag_12\n      jump\t// in\n    tag_9:\n      mload(0x40)\n      tag_13\n      swap5\n      swap4\n      swap3\n      swap2\n      swap1\n      tag_14\n      jump\t// in\n    tag_13:\n      mload(0x40)\n      dup1\n      swap2\n      sub\n      swap1\n      return\n        /* \"IdentityManagement.sol\":2864:3107  function addVerifier(address _verifier) public onlyContractOwner{... */\n    tag_4:\n      tag_15\n      0x04\n      dup1\n      calldatasize\n      sub\n      dup2\n      add\n      swap1\n      tag_16\n      swap2\n      swap1\n      tag_11\n      jump\t// in\n    tag_16:\n      tag_17\n      jump\t// in\n    tag_15:\n      stop\n        /* \"IdentityManagement.sol\":2232:2595  function verifyIdentity(address _user) public onlyVerifier {... */\n    tag_5:\n      tag_18\n      0x04\n      dup1\n      calldatasize\n      sub\n      dup2\n      add\n      swap1\n      tag_19\n      swap2\n      swap1\n      tag_11\n      jump\t// in\n    tag_19:\n      tag_20\n      jump\t// in\n    tag_18:\n      stop\n        /* \"IdentityManagement.sol\":1650:2224  function registerIdentity(string memory _name, string memory _email, string memory _verificationDocument) public {... */\n    tag_6:\n      tag_21\n      0x04\n      dup1\n      calldatasize\n      sub\n      dup2\n      add\n      swap1\n      tag_22\n      swap2\n      swap1\n      tag_23\n      jump\t// in\n    tag_22:\n      tag_24\n      jump\t// in\n    tag_21:\n      stop\n        /* \"IdentityManagement.sol\":3117:3392  function removeVerifier(address _verifier) public onlyContractOwner {... */\n    tag_7:\n      tag_25\n      0x04\n      dup1\n      calldatasize\n      sub\n      dup2\n      add\n      swap1\n      tag_26\n      swap2\n      swap1\n      tag_11\n      jump\t// in\n    tag_26:\n      tag_27\n      jump\t// in\n    tag_25:\n      stop\n        /* \"IdentityManagement.sol\":359:387  address public contractOwner */\n    tag_8:\n      tag_28\n      tag_29\n      jump\t// in\n    tag_28:\n      mload(0x40)\n      tag_30\n      swap2\n      swap1\n      tag_31\n      jump\t// in\n    tag_30:\n      mload(0x40)\n      dup1\n      swap2\n      sub\n      swap1\n      return\n        /* \"IdentityManagement.sol\":2603:2856  function getIdentity(address _user) public view returns(string memory name, string memory email, bool isVerified, bool isRevoked) {... */\n    tag_12:\n        /* \"IdentityManagement.sol\":2659:2677  string memory name */\n      0x60\n        /* \"IdentityManagement.sol\":2679:2698  string memory email */\n      dup1\n        /* \"IdentityManagement.sol\":2700:2715  bool isVerified */\n      0x00\n        /* \"IdentityManagement.sol\":2717:2731  bool isRevoked */\n      dup1\n        /* \"IdentityManagement.sol\":2744:2762  Identity memory id */\n      0x00\n        /* \"IdentityManagement.sol\":2765:2775  identities */\n      0x01\n        /* \"IdentityManagement.sol\":2765:2782  identities[_user] */\n      0x00\n        /* \"IdentityManagement.sol\":2776:2781  _user */\n      dup8\n        /* \"IdentityManagement.sol\":2765:2782  identities[_user] */\n      0xffffffffffffffffffffffffffffffffffffffff\n      and\n      0xffffffffffffffffffffffffffffffffffffffff\n      and\n      dup2\n      mstore\n      0x20\n      add\n      swap1\n      dup2\n      mstore\n      0x20\n      add\n      0x00\n      keccak256\n        /* \"IdentityManagement.sol\":2744:2782  Identity memory id = identities[_user] */\n      mload(0x40)\n      dup1\n      0xc0\n      add\n      0x40\n      mstore\n      swap1\n      dup2\n      0x00\n      dup3\n      add\n      dup1\n      sload\n      tag_33\n      swap1\n      tag_34\n      jump\t// in\n    tag_33:\n      dup1\n      0x1f\n      add\n      0x20\n      dup1\n      swap2\n      div\n      mul\n      0x20\n      add\n      mload(0x40)\n      swap1\n      dup2\n      add\n      0x40\n      mstore\n      dup1\n      swap3\n      swap2\n      swap1\n      dup2\n      dup2\n      mstore\n      0x20\n      add\n      dup3\n      dup1\n      sload\n      tag_35\n      swap1\n      tag_34\n      jump\t// in\n    tag_35:\n      dup1\n      iszero\n      tag_36\n      jumpi\n      dup1\n      0x1f\n      lt\n      tag_37\n      jumpi\n      0x0100\n      dup1\n      dup4\n      sload\n      div\n      mul\n      dup4\n      mstore\n      swap2\n      0x20\n      add\n      swap2\n      jump(tag_36)\n    tag_37:\n      dup3\n      add\n      swap2\n      swap1\n      0x00\n      mstore\n      keccak256(0x00, 0x20)\n      swap1\n    tag_38:\n      dup2\n      sload\n      dup2\n      mstore\n      swap1\n      0x01\n      add\n      swap1\n      0x20\n      add\n      dup1\n      dup4\n      gt\n      tag_38\n      jumpi\n      dup3\n      swap1\n      sub\n      0x1f\n      and\n      dup3\n      add\n      swap2\n    tag_36:\n      pop\n      pop\n      pop\n      pop\n      pop\n      dup2\n      mstore\n      0x20\n      add\n      0x01\n      dup3\n      add\n      dup1\n      sload\n      tag_39\n      swap1\n      tag_34\n      jump\t// in\n    tag_39:\n      dup1\n      0x1f\n      add\n      0x20\n      dup1\n      swap2\n      div\n      mul\n      0x20\n      add\n      mload(0x40)\n      swap1\n      dup2\n      add\n      0x40\n      mstore\n      dup1\n      swap3\n      swap2\n      swap1\n      dup2\n      dup2\n      mstore\n      0x20\n      add\n      dup3\n      dup1\n      sload\n      tag_40\n      swap1\n      tag_34\n      jump\t// in\n    tag_40:\n      dup1\n      iszero\n      tag_41\n      jumpi\n      dup1\n      0x1f\n      lt\n      tag_42\n      jumpi\n      0x0100\n      dup1\n      dup4\n      sload\n      div\n      mul\n      dup4\n      mstore\n      swap2\n      0x20\n      add\n      swap2\n      jump(tag_41)\n    tag_42:\n      dup3\n      add\n      swap2\n      swap1\n      0x00\n      mstore\n      keccak256(0x00, 0x20)\n      swap1\n    tag_43:\n      dup2\n      sload\n      dup2\n      mstore\n      swap1\n      0x01\n      add\n      swap1\n      0x20\n      add\n      dup1\n      dup4\n      gt\n      tag_43\n      jumpi\n      dup3\n      swap1\n      sub\n      0x1f\n      and\n      dup3\n      add\n      swap2\n    tag_41:\n      pop\n      pop\n      pop\n      pop\n      pop\n      dup2\n      mstore\n      0x20\n      add\n      0x02\n      dup3\n      add\n      dup1\n      sload\n      tag_44\n      swap1\n      tag_34\n      jump\t// in\n    tag_44:\n      dup1\n      0x1f\n      add\n      0x20\n      dup1\n      swap2\n      div\n      mul\n      0x20\n      add\n      mload(0x40)\n      swap1\n      dup2\n      add\n      0x40\n      mstore\n      dup1\n      swap3\n      swap2\n      swap1\n      dup2\n      dup2\n      mstore\n      0x20\n      add\n      dup3\n      dup1\n      sload\n      tag_45\n      swap1\n      tag_34\n      jump\t// in\n    tag_45:\n      dup1\n      iszero\n      tag_46\n      jumpi\n      dup1\n      0x1f\n      lt\n      tag_47\n      jumpi\n      0x0100\n      dup1\n      dup4\n      sload\n      div\n      mul\n      dup4\n      mstore\n      swap2\n      0x20\n      add\n      swap2\n      jump(tag_46)\n    tag_47:\n      dup3\n      add\n      swap2\n      swap1\n      0x00\n      mstore\n      keccak256(0x00, 0x20)\n      swap1\n    tag_48:\n      dup2\n      sload\n      dup2\n      mstore\n      swap1\n      0x01\n      add\n      swap1\n      0x20\n      add\n      dup1\n      dup4\n      gt\n      tag_48\n      jumpi\n      dup3\n      swap1\n      sub\n      0x1f\n      and\n      dup3\n      add\n      swap2\n    tag_46:\n      pop\n      pop\n      pop\n      pop\n      pop\n      dup2\n      mstore\n      0x20\n      add\n      0x03\n      dup3\n      add\n      0x00\n      swap1\n      sload\n      swap1\n      0x0100\n      exp\n      swap1\n      div\n      0xff\n      and\n      iszero\n      iszero\n      iszero\n      iszero\n      dup2\n      mstore\n      0x20\n      add\n      0x03\n      dup3\n      add\n      0x01\n      swap1\n      sload\n      swap1\n      0x0100\n      exp\n      swap1\n      div\n      0xff\n      and\n      iszero\n      iszero\n      iszero\n      iszero\n      dup2\n      mstore\n      0x20\n      add\n      0x03\n      dup3\n      add\n      0x02\n      swap1\n      sload\n      swap1\n      0x0100\n      exp\n      swap1\n      div\n      0xffffffffffffffffffffffffffffffffffffffff\n      and\n      0xffffffffffffffffffffffffffffffffffffffff\n      and\n      0xffffffffffffffffffffffffffffffffffffffff\n      and\n      dup2\n      mstore\n      pop\n      pop\n      swap1\n      pop\n        /* \"IdentityManagement.sol\":2801:2803  id */\n      dup1\n        /* \"IdentityManagement.sol\":2801:2808  id.name */\n      0x00\n      add\n      mload\n        /* \"IdentityManagement.sol\":2810:2812  id */\n      dup2\n        /* \"IdentityManagement.sol\":2810:2818  id.email */\n      0x20\n      add\n      mload\n        /* \"IdentityManagement.sol\":2820:2822  id */\n      dup3\n        /* \"IdentityManagement.sol\":2820:2833  id.isVerified */\n      0x60\n      add\n      mload\n        /* \"IdentityManagement.sol\":2835:2837  id */\n      dup4\n        /* \"IdentityManagement.sol\":2835:2847  id.isRevoked */\n      0x80\n      add\n      mload\n        /* \"IdentityManagement.sol\":2793:2848  return (id.name, id.email, id.isVerified, id.isRevoked) */\n      swap5\n      pop\n      swap5\n      pop\n      swap5\n      pop\n      swap5\n      pop\n      pop\n        /* \"IdentityManagement.sol\":2603:2856  function getIdentity(address _user) public view returns(string memory name, string memory email, bool isVerified, bool isRevoked) {... */\n      swap2\n      swap4\n      pop\n      swap2\n      swap4\n      jump\t// out\n        /* \"IdentityManagement.sol\":2864:3107  function addVerifier(address _verifier) public onlyContractOwner{... */\n    tag_17:\n        /* \"IdentityManagement.sol\":1430:1443  contractOwner */\n      0x00\n      dup1\n      sload\n      swap1\n      0x0100\n      exp\n      swap1\n      div\n      0xffffffffffffffffffffffffffffffffffffffff\n      and\n        /* \"IdentityManagement.sol\":1416:1443  msg.sender == contractOwner */\n      0xffffffffffffffffffffffffffffffffffffffff\n      and\n        /* \"IdentityManagement.sol\":1416:1426  msg.sender */\n      caller\n        /* \"IdentityManagement.sol\":1416:1443  msg.sender == contractOwner */\n      0xffffffffffffffffffffffffffffffffffffffff\n      and\n      eq\n        /* \"IdentityManagement.sol\":1394:1519  require(... */\n      tag_50\n      jumpi\n      mload(0x40)\n      0x08c379a000000000000000000000000000000000000000000000000000000000\n      dup2\n      mstore\n      0x04\n      add\n      tag_51\n      swap1\n      tag_52\n      jump\t// in\n    tag_51:\n      mload(0x40)\n      dup1\n      swap2\n      sub\n      swap1\n      revert\n    tag_50:\n        /* \"IdentityManagement.sol\":2948:2967  authorizedVerifiers */\n      0x02\n        /* \"IdentityManagement.sol\":2948:2978  authorizedVerifiers[_verifier] */\n      0x00\n        /* \"IdentityManagement.sol\":2968:2977  _verifier */\n      dup3\n        /* \"IdentityManagement.sol\":2948:2978  authorizedVerifiers[_verifier] */\n      0xffffffffffffffffffffffffffffffffffffffff\n      and\n      0xffffffffffffffffffffffffffffffffffffffff\n      and\n      dup2\n      mstore\n      0x20\n      add\n      swap1\n      dup2\n      mstore\n      0x20\n      add\n      0x00\n      keccak256\n      0x00\n      swap1\n      sload\n      swap1\n      0x0100\n      exp\n      swap1\n      div\n      0xff\n      and\n        /* \"IdentityManagement.sol\":2947:2978  !authorizedVerifiers[_verifier] */\n      iszero\n        /* \"IdentityManagement.sol\":2939:3009  require(!authorizedVerifiers[_verifier], \"Verifier is already added.\") */\n      tag_54\n      jumpi\n      mload(0x40)\n      0x08c379a000000000000000000000000000000000000000000000000000000000\n      dup2\n      mstore\n      0x04\n      add\n      tag_55\n      swap1\n      tag_56\n      jump\t// in\n    tag_55:\n      mload(0x40)\n      dup1\n      swap2\n      sub\n      swap1\n      revert\n    tag_54:\n        /* \"IdentityManagement.sol\":3053:3057  true */\n      0x01\n        /* \"IdentityManagement.sol\":3020:3039  authorizedVerifiers */\n      0x02\n        /* \"IdentityManagement.sol\":3020:3050  authorizedVerifiers[_verifier] */\n      0x00\n        /* \"IdentityManagement.sol\":3040:3049  _verifier */\n      dup4\n        /* \"IdentityManagement.sol\":3020:3050  authorizedVerifiers[_verifier] */\n      0xffffffffffffffffffffffffffffffffffffffff\n      and\n      0xffffffffffffffffffffffffffffffffffffffff\n      and\n      dup2\n      mstore\n      0x20\n      add\n      swap1\n      dup2\n      mstore\n      0x20\n      add\n      0x00\n      keccak256\n      0x00\n        /* \"IdentityManagement.sol\":3020:3057  authorizedVerifiers[_verifier] = true */\n      0x0100\n      exp\n      dup2\n      sload\n      dup2\n      0xff\n      mul\n      not\n      and\n      swap1\n      dup4\n      iszero\n      iszero\n      mul\n      or\n      swap1\n      sstore\n      pop\n        /* \"IdentityManagement.sol\":3089:3098  _verifier */\n      dup1\n        /* \"IdentityManagement.sol\":3075:3099  VerifierAdded(_verifier) */\n      0xffffffffffffffffffffffffffffffffffffffff\n      and\n      0x6d05492139c5ea989514a5d2150c028041e5c087e2a39967f67dc7d2655adb81\n      mload(0x40)\n      mload(0x40)\n      dup1\n      swap2\n      sub\n      swap1\n      log2\n        /* \"IdentityManagement.sol\":2864:3107  function addVerifier(address _verifier) public onlyContractOwner{... */\n      pop\n      jump\t// out\n        /* \"IdentityManagement.sol\":2232:2595  function verifyIdentity(address _user) public onlyVerifier {... */\n    tag_20:\n        /* \"IdentityManagement.sol\":1215:1234  authorizedVerifiers */\n      0x02\n        /* \"IdentityManagement.sol\":1215:1246  authorizedVerifiers[msg.sender] */\n      0x00\n        /* \"IdentityManagement.sol\":1235:1245  msg.sender */\n      caller\n        /* \"IdentityManagement.sol\":1215:1246  authorizedVerifiers[msg.sender] */\n      0xffffffffffffffffffffffffffffffffffffffff\n      and\n      0xffffffffffffffffffffffffffffffffffffffff\n      and\n      dup2\n      mstore\n      0x20\n      add\n      swap1\n      dup2\n      mstore\n      0x20\n      add\n      0x00\n      keccak256\n      0x00\n      swap1\n      sload\n      swap1\n      0x0100\n      exp\n      swap1\n      div\n      0xff\n      and\n        /* \"IdentityManagement.sol\":1193:1326  require(... */\n      tag_58\n      jumpi\n      mload(0x40)\n      0x08c379a000000000000000000000000000000000000000000000000000000000\n      dup2\n      mstore\n      0x04\n      add\n      tag_59\n      swap1\n      tag_60\n      jump\t// in\n    tag_59:\n      mload(0x40)\n      dup1\n      swap2\n      sub\n      swap1\n      revert\n    tag_58:\n        /* \"IdentityManagement.sol\":2325:2335  identities */\n      0x01\n        /* \"IdentityManagement.sol\":2325:2342  identities[_user] */\n      0x00\n        /* \"IdentityManagement.sol\":2336:2341  _user */\n      dup3\n        /* \"IdentityManagement.sol\":2325:2342  identities[_user] */\n      0xffffffffffffffffffffffffffffffffffffffff\n      and\n      0xffffffffffffffffffffffffffffffffffffffff\n      and\n      dup2\n      mstore\n      0x20\n      add\n      swap1\n      dup2\n      mstore\n      0x20\n      add\n      0x00\n      keccak256\n        /* \"IdentityManagement.sol\":2325:2353  identities[_user].isVerified */\n      0x03\n      add\n      0x00\n      swap1\n      sload\n      swap1\n      0x0100\n      exp\n      swap1\n      div\n      0xff\n      and\n        /* \"IdentityManagement.sol\":2324:2353  !identities[_user].isVerified */\n      iszero\n        /* \"IdentityManagement.sol\":2302:2409  require(... */\n      tag_62\n      jumpi\n      mload(0x40)\n      0x08c379a000000000000000000000000000000000000000000000000000000000\n      dup2\n      mstore\n      0x04\n      add\n      tag_63\n      swap1\n      tag_64\n      jump\t// in\n    tag_63:\n      mload(0x40)\n      dup1\n      swap2\n      sub\n      swap1\n      revert\n    tag_62:\n        /* \"IdentityManagement.sol\":2429:2439  identities */\n      0x01\n        /* \"IdentityManagement.sol\":2429:2446  identities[_user] */\n      0x00\n        /* \"IdentityManagement.sol\":2440:2445  _user */\n      dup3\n        /* \"IdentityManagement.sol\":2429:2446  identities[_user] */\n      0xffffffffffffffffffffffffffffffffffffffff\n      and\n      0xffffffffffffffffffffffffffffffffffffffff\n      and\n      dup2\n      mstore\n      0x20\n      add\n      swap1\n      dup2\n      mstore\n      0x20\n      add\n      0x00\n      keccak256\n        /* \"IdentityManagement.sol\":2429:2456  identities[_user].isRevoked */\n      0x03\n      add\n      0x01\n      swap1\n      sload\n      swap1\n      0x0100\n      exp\n      swap1\n      div\n      0xff\n      and\n        /* \"IdentityManagement.sol\":2428:2456  !identities[_user].isRevoked */\n      iszero\n        /* \"IdentityManagement.sol\":2420:2486  require(!identities[_user].isRevoked, \"Identity has been revoked\") */\n      tag_65\n      jumpi\n      mload(0x40)\n      0x08c379a000000000000000000000000000000000000000000000000000000000\n      dup2\n      mstore\n      0x04\n      add\n      tag_66\n      swap1\n      tag_67\n      jump\t// in\n    tag_66:\n      mload(0x40)\n      dup1\n      swap2\n      sub\n      swap1\n      revert\n    tag_65:\n        /* \"IdentityManagement.sol\":2530:2534  true */\n      0x01\n        /* \"IdentityManagement.sol\":2499:2509  identities */\n      dup1\n        /* \"IdentityManagement.sol\":2499:2516  identities[_user] */\n      0x00\n        /* \"IdentityManagement.sol\":2510:2515  _user */\n      dup4\n        /* \"IdentityManagement.sol\":2499:2516  identities[_user] */\n      0xffffffffffffffffffffffffffffffffffffffff\n      and\n      0xffffffffffffffffffffffffffffffffffffffff\n      and\n      dup2\n      mstore\n      0x20\n      add\n      swap1\n      dup2\n      mstore\n      0x20\n      add\n      0x00\n      keccak256\n        /* \"IdentityManagement.sol\":2499:2527  identities[_user].isVerified */\n      0x03\n      add\n      0x00\n        /* \"IdentityManagement.sol\":2499:2534  identities[_user].isVerified = true */\n      0x0100\n      exp\n      dup2\n      sload\n      dup2\n      0xff\n      mul\n      not\n      and\n      swap1\n      dup4\n      iszero\n      iszero\n      mul\n      or\n      swap1\n      sstore\n      pop\n        /* \"IdentityManagement.sol\":2576:2586  msg.sender */\n      caller\n        /* \"IdentityManagement.sol\":2552:2587  IdentityVerified(_user, msg.sender) */\n      0xffffffffffffffffffffffffffffffffffffffff\n      and\n        /* \"IdentityManagement.sol\":2569:2574  _user */\n      dup2\n        /* \"IdentityManagement.sol\":2552:2587  IdentityVerified(_user, msg.sender) */\n      0xffffffffffffffffffffffffffffffffffffffff\n      and\n      0x25e4589528aa4c1dcd5c91ab0cc06e99d962229fb9e54162702032772a1655a0\n      mload(0x40)\n      mload(0x40)\n      dup1\n      swap2\n      sub\n      swap1\n      log3\n        /* \"IdentityManagement.sol\":2232:2595  function verifyIdentity(address _user) public onlyVerifier {... */\n      pop\n      jump\t// out\n        /* \"IdentityManagement.sol\":1650:2224  function registerIdentity(string memory _name, string memory _email, string memory _verificationDocument) public {... */\n    tag_24:\n        /* \"IdentityManagement.sol\":1841:1842  0 */\n      0x00\n        /* \"IdentityManagement.sol\":1802:1812  identities */\n      0x01\n        /* \"IdentityManagement.sol\":1802:1824  identities[msg.sender] */\n      0x00\n        /* \"IdentityManagement.sol\":1813:1823  msg.sender */\n      caller\n        /* \"IdentityManagement.sol\":1802:1824  identities[msg.sender] */\n      0xffffffffffffffffffffffffffffffffffffffff\n      and\n      0xffffffffffffffffffffffffffffffffffffffff\n      and\n      dup2\n      mstore\n      0x20\n      add\n      swap1\n      dup2\n      mstore\n      0x20\n      add\n      0x00\n      keccak256\n        /* \"IdentityManagement.sol\":1802:1829  identities[msg.sender].name */\n      0x00\n      add\n        /* \"IdentityManagement.sol\":1796:1837  bytes(identities[msg.sender].name).length */\n      dup1\n      sload\n      tag_69\n      swap1\n      tag_34\n      jump\t// in\n    tag_69:\n      swap1\n      pop\n        /* \"IdentityManagement.sol\":1796:1842  bytes(identities[msg.sender].name).length == 0 */\n      eq\n        /* \"IdentityManagement.sol\":1774:1897  require(... */\n      tag_70\n      jumpi\n      mload(0x40)\n      0x08c379a000000000000000000000000000000000000000000000000000000000\n      dup2\n      mstore\n      0x04\n      add\n      tag_71\n      swap1\n      tag_72\n      jump\t// in\n    tag_71:\n      mload(0x40)\n      dup1\n      swap2\n      sub\n      swap1\n      revert\n    tag_70:\n        /* \"IdentityManagement.sol\":1933:2161  Identity({... */\n      mload(0x40)\n      dup1\n      0xc0\n      add\n      0x40\n      mstore\n      dup1\n        /* \"IdentityManagement.sol\":1963:1968  _name */\n      dup5\n        /* \"IdentityManagement.sol\":1933:2161  Identity({... */\n      dup2\n      mstore\n      0x20\n      add\n        /* \"IdentityManagement.sol\":1990:1996  _email */\n      dup4\n        /* \"IdentityManagement.sol\":1933:2161  Identity({... */\n      dup2\n      mstore\n      0x20\n      add\n        /* \"IdentityManagement.sol\":2033:2054  _verificationDocument */\n      dup3\n        /* \"IdentityManagement.sol\":1933:2161  Identity({... */\n      dup2\n      mstore\n      0x20\n      add\n        /* \"IdentityManagement.sol\":2081:2086  false */\n      0x00\n        /* \"IdentityManagement.sol\":1933:2161  Identity({... */\n      iszero\n      iszero\n      dup2\n      mstore\n      0x20\n      add\n        /* \"IdentityManagement.sol\":2112:2117  false */\n      0x00\n        /* \"IdentityManagement.sol\":1933:2161  Identity({... */\n      iszero\n      iszero\n      dup2\n      mstore\n      0x20\n      add\n        /* \"IdentityManagement.sol\":2139:2149  msg.sender */\n      caller\n        /* \"IdentityManagement.sol\":1933:2161  Identity({... */\n      0xffffffffffffffffffffffffffffffffffffffff\n      and\n      dup2\n      mstore\n      pop\n        /* \"IdentityManagement.sol\":1908:1918  identities */\n      0x01\n        /* \"IdentityManagement.sol\":1908:1930  identities[msg.sender] */\n      0x00\n        /* \"IdentityManagement.sol\":1919:1929  msg.sender */\n      caller\n        /* \"IdentityManagement.sol\":1908:1930  identities[msg.sender] */\n      0xffffffffffffffffffffffffffffffffffffffff\n      and\n      0xffffffffffffffffffffffffffffffffffffffff\n      and\n      dup2\n      mstore\n      0x20\n      add\n      swap1\n      dup2\n      mstore\n      0x20\n      add\n      0x00\n      keccak256\n        /* \"IdentityManagement.sol\":1908:2161  identities[msg.sender] = Identity({... */\n      0x00\n      dup3\n      add\n      mload\n      dup2\n      0x00\n      add\n      swap1\n      dup2\n      tag_73\n      swap2\n      swap1\n      tag_74\n      jump\t// in\n    tag_73:\n      pop\n      0x20\n      dup3\n      add\n      mload\n      dup2\n      0x01\n      add\n      swap1\n      dup2\n      tag_75\n      swap2\n      swap1\n      tag_74\n      jump\t// in\n    tag_75:\n      pop\n      0x40\n      dup3\n      add\n      mload\n      dup2\n      0x02\n      add\n      swap1\n      dup2\n      tag_76\n      swap2\n      swap1\n      tag_74\n      jump\t// in\n    tag_76:\n      pop\n      0x60\n      dup3\n      add\n      mload\n      dup2\n      0x03\n      add\n      exp(0x0100, 0x00)\n      dup2\n      sload\n      dup2\n      0xff\n      mul\n      not\n      and\n      swap1\n      dup4\n      iszero\n      iszero\n      mul\n      or\n      swap1\n      sstore\n      pop\n      0x80\n      dup3\n      add\n      mload\n      dup2\n      0x03\n      add\n      exp(0x0100, 0x01)\n      dup2\n      sload\n      dup2\n      0xff\n      mul\n      not\n      and\n      swap1\n      dup4\n      iszero\n      iszero\n      mul\n      or\n      swap1\n      sstore\n      pop\n      0xa0\n      dup3\n      add\n      mload\n      dup2\n      0x03\n      add\n      exp(0x0100, 0x02)\n      dup2\n      sload\n      dup2\n      0xffffffffffffffffffffffffffffffffffffffff\n      mul\n      not\n      and\n      swap1\n      dup4\n      0xffffffffffffffffffffffffffffffffffffffff\n      and\n      mul\n      or\n      swap1\n      sstore\n      pop\n      swap1\n      pop\n      pop\n        /* \"IdentityManagement.sol\":2198:2208  msg.sender */\n      caller\n        /* \"IdentityManagement.sol\":2179:2216  IdentityRegistered(msg.sender, _name) */\n      0xffffffffffffffffffffffffffffffffffffffff\n      and\n      0x9b6805eb7a1bee8a797c79c5f2a39a182f3d37f8b8cce5ec42371000c8115dfd\n        /* \"IdentityManagement.sol\":2210:2215  _name */\n      dup5\n        /* \"IdentityManagement.sol\":2179:2216  IdentityRegistered(msg.sender, _name) */\n      mload(0x40)\n      tag_77\n      swap2\n      swap1\n      tag_78\n      jump\t// in\n    tag_77:\n      mload(0x40)\n      dup1\n      swap2\n      sub\n      swap1\n      log2\n        /* \"IdentityManagement.sol\":1650:2224  function registerIdentity(string memory _name, string memory _email, string memory _verificationDocument) public {... */\n      pop\n      pop\n      pop\n      jump\t// out\n        /* \"IdentityManagement.sol\":3117:3392  function removeVerifier(address _verifier) public onlyContractOwner {... */\n    tag_27:\n        /* \"IdentityManagement.sol\":1430:1443  contractOwner */\n      0x00\n      dup1\n      sload\n      swap1\n      0x0100\n      exp\n      swap1\n      div\n      0xffffffffffffffffffffffffffffffffffffffff\n      and\n        /* \"IdentityManagement.sol\":1416:1443  msg.sender == contractOwner */\n      0xffffffffffffffffffffffffffffffffffffffff\n      and\n        /* \"IdentityManagement.sol\":1416:1426  msg.sender */\n      caller\n        /* \"IdentityManagement.sol\":1416:1443  msg.sender == contractOwner */\n      0xffffffffffffffffffffffffffffffffffffffff\n      and\n      eq\n        /* \"IdentityManagement.sol\":1394:1519  require(... */\n      tag_80\n      jumpi\n      mload(0x40)\n      0x08c379a000000000000000000000000000000000000000000000000000000000\n      dup2\n      mstore\n      0x04\n      add\n      tag_81\n      swap1\n      tag_52\n      jump\t// in\n    tag_81:\n      mload(0x40)\n      dup1\n      swap2\n      sub\n      swap1\n      revert\n    tag_80:\n        /* \"IdentityManagement.sol\":3218:3237  authorizedVerifiers */\n      0x02\n        /* \"IdentityManagement.sol\":3218:3248  authorizedVerifiers[_verifier] */\n      0x00\n        /* \"IdentityManagement.sol\":3238:3247  _verifier */\n      dup3\n        /* \"IdentityManagement.sol\":3218:3248  authorizedVerifiers[_verifier] */\n      0xffffffffffffffffffffffffffffffffffffffff\n      and\n      0xffffffffffffffffffffffffffffffffffffffff\n      and\n      dup2\n      mstore\n      0x20\n      add\n      swap1\n      dup2\n      mstore\n      0x20\n      add\n      0x00\n      keccak256\n      0x00\n      swap1\n      sload\n      swap1\n      0x0100\n      exp\n      swap1\n      div\n      0xff\n      and\n        /* \"IdentityManagement.sol\":3196:3287  require(... */\n      tag_83\n      jumpi\n      mload(0x40)\n      0x08c379a000000000000000000000000000000000000000000000000000000000\n      dup2\n      mstore\n      0x04\n      add\n      tag_84\n      swap1\n      tag_85\n      jump\t// in\n    tag_84:\n      mload(0x40)\n      dup1\n      swap2\n      sub\n      swap1\n      revert\n    tag_83:\n        /* \"IdentityManagement.sol\":3331:3336  false */\n      0x00\n        /* \"IdentityManagement.sol\":3298:3317  authorizedVerifiers */\n      0x02\n        /* \"IdentityManagement.sol\":3298:3328  authorizedVerifiers[_verifier] */\n      0x00\n        /* \"IdentityManagement.sol\":3318:3327  _verifier */\n      dup4\n        /* \"IdentityManagement.sol\":3298:3328  authorizedVerifiers[_verifier] */\n      0xffffffffffffffffffffffffffffffffffffffff\n      and\n      0xffffffffffffffffffffffffffffffffffffffff\n      and\n      dup2\n      mstore\n      0x20\n      add\n      swap1\n      dup2\n      mstore\n      0x20\n      add\n      0x00\n      keccak256\n      0x00\n        /* \"IdentityManagement.sol\":3298:3336  authorizedVerifiers[_verifier] = false */\n      0x0100\n      exp\n      dup2\n      sload\n      dup2\n      0xff\n      mul\n      not\n      and\n      swap1\n      dup4\n      iszero\n      iszero\n      mul\n      or\n      swap1\n      sstore\n      pop\n        /* \"IdentityManagement.sol\":3370:3379  _verifier */\n      dup1\n        /* \"IdentityManagement.sol\":3354:3380  VerifierRemoved(_verifier) */\n      0xffffffffffffffffffffffffffffffffffffffff\n      and\n      0x44a3cd4eb5cc5748f6169df057b1cb2ae4c383e87cd94663c430e095d4cba424\n      mload(0x40)\n      mload(0x40)\n      dup1\n      swap2\n      sub\n      swap1\n      log2\n        /* \"IdentityManagement.sol\":3117:3392  function removeVerifier(address _verifier) public onlyContractOwner {... */\n      pop\n      jump\t// out\n        /* \"IdentityManagement.sol\":359:387  address public contractOwner */\n    tag_29:\n      0x00\n      dup1\n      sload\n      swap1\n      0x0100\n      exp\n      swap1\n      div\n      0xffffffffffffffffffffffffffffffffffffffff\n      and\n      dup2\n      jump\t// out\n        /* \"#utility.yul\":7:82   */\n    tag_86:\n        /* \"#utility.yul\":40:46   */\n      0x00\n        /* \"#utility.yul\":73:75   */\n      0x40\n        /* \"#utility.yul\":67:76   */\n      mload\n        /* \"#utility.yul\":57:76   */\n      swap1\n      pop\n        /* \"#utility.yul\":7:82   */\n      swap1\n      jump\t// out\n        /* \"#utility.yul\":88:205   */\n    tag_87:\n        /* \"#utility.yul\":197:198   */\n      0x00\n        /* \"#utility.yul\":194:195   */\n      dup1\n        /* \"#utility.yul\":187:199   */\n      revert\n        /* \"#utility.yul\":211:328   */\n    tag_88:\n        /* \"#utility.yul\":320:321   */\n      0x00\n        /* \"#utility.yul\":317:318   */\n      dup1\n        /* \"#utility.yul\":310:322   */\n      revert\n        /* \"#utility.yul\":334:460   */\n    tag_89:\n        /* \"#utility.yul\":371:378   */\n      0x00\n        /* \"#utility.yul\":411:453   */\n      0xffffffffffffffffffffffffffffffffffffffff\n        /* \"#utility.yul\":404:409   */\n      dup3\n        /* \"#utility.yul\":400:454   */\n      and\n        /* \"#utility.yul\":389:454   */\n      swap1\n      pop\n        /* \"#utility.yul\":334:460   */\n      swap2\n      swap1\n      pop\n      jump\t// out\n        /* \"#utility.yul\":466:562   */\n    tag_90:\n        /* \"#utility.yul\":503:510   */\n      0x00\n        /* \"#utility.yul\":532:556   */\n      tag_147\n        /* \"#utility.yul\":550:555   */\n      dup3\n        /* \"#utility.yul\":532:556   */\n      tag_89\n      jump\t// in\n    tag_147:\n        /* \"#utility.yul\":521:556   */\n      swap1\n      pop\n        /* \"#utility.yul\":466:562   */\n      swap2\n      swap1\n      pop\n      jump\t// out\n        /* \"#utility.yul\":568:690   */\n    tag_91:\n        /* \"#utility.yul\":641:665   */\n      tag_149\n        /* \"#utility.yul\":659:664   */\n      dup2\n        /* \"#utility.yul\":641:665   */\n      tag_90\n      jump\t// in\n    tag_149:\n        /* \"#utility.yul\":634:639   */\n      dup2\n        /* \"#utility.yul\":631:666   */\n      eq\n        /* \"#utility.yul\":621:684   */\n      tag_150\n      jumpi\n        /* \"#utility.yul\":680:681   */\n      0x00\n        /* \"#utility.yul\":677:678   */\n      dup1\n        /* \"#utility.yul\":670:682   */\n      revert\n        /* \"#utility.yul\":621:684   */\n    tag_150:\n        /* \"#utility.yul\":568:690   */\n      pop\n      jump\t// out\n        /* \"#utility.yul\":696:835   */\n    tag_92:\n        /* \"#utility.yul\":742:747   */\n      0x00\n        /* \"#utility.yul\":780:786   */\n      dup2\n        /* \"#utility.yul\":767:787   */\n      calldataload\n        /* \"#utility.yul\":758:787   */\n      swap1\n      pop\n        /* \"#utility.yul\":796:829   */\n      tag_152\n        /* \"#utility.yul\":823:828   */\n      dup2\n        /* \"#utility.yul\":796:829   */\n      tag_91\n      jump\t// in\n    tag_152:\n        /* \"#utility.yul\":696:835   */\n      swap3\n      swap2\n      pop\n      pop\n      jump\t// out\n        /* \"#utility.yul\":841:1170   */\n    tag_11:\n        /* \"#utility.yul\":900:906   */\n      0x00\n        /* \"#utility.yul\":949:951   */\n      0x20\n        /* \"#utility.yul\":937:946   */\n      dup3\n        /* \"#utility.yul\":928:935   */\n      dup5\n        /* \"#utility.yul\":924:947   */\n      sub\n        /* \"#utility.yul\":920:952   */\n      slt\n        /* \"#utility.yul\":917:1036   */\n      iszero\n      tag_154\n      jumpi\n        /* \"#utility.yul\":955:1034   */\n      tag_155\n      tag_87\n      jump\t// in\n    tag_155:\n        /* \"#utility.yul\":917:1036   */\n    tag_154:\n        /* \"#utility.yul\":1075:1076   */\n      0x00\n        /* \"#utility.yul\":1100:1153   */\n      tag_156\n        /* \"#utility.yul\":1145:1152   */\n      dup5\n        /* \"#utility.yul\":1136:1142   */\n      dup3\n        /* \"#utility.yul\":1125:1134   */\n      dup6\n        /* \"#utility.yul\":1121:1143   */\n      add\n        /* \"#utility.yul\":1100:1153   */\n      tag_92\n      jump\t// in\n    tag_156:\n        /* \"#utility.yul\":1090:1153   */\n      swap2\n      pop\n        /* \"#utility.yul\":1046:1163   */\n      pop\n        /* \"#utility.yul\":841:1170   */\n      swap3\n      swap2\n      pop\n      pop\n      jump\t// out\n        /* \"#utility.yul\":1176:1275   */\n    tag_93:\n        /* \"#utility.yul\":1228:1234   */\n      0x00\n        /* \"#utility.yul\":1262:1267   */\n      dup2\n        /* \"#utility.yul\":1256:1268   */\n      mload\n        /* \"#utility.yul\":1246:1268   */\n      swap1\n      pop\n        /* \"#utility.yul\":1176:1275   */\n      swap2\n      swap1\n      pop\n      jump\t// out\n        /* \"#utility.yul\":1281:1450   */\n    tag_94:\n        /* \"#utility.yul\":1365:1376   */\n      0x00\n        /* \"#utility.yul\":1399:1405   */\n      dup3\n        /* \"#utility.yul\":1394:1397   */\n      dup3\n        /* \"#utility.yul\":1387:1406   */\n      mstore\n        /* \"#utility.yul\":1439:1443   */\n      0x20\n        /* \"#utility.yul\":1434:1437   */\n      dup3\n        /* \"#utility.yul\":1430:1444   */\n      add\n        /* \"#utility.yul\":1415:1444   */\n      swap1\n      pop\n        /* \"#utility.yul\":1281:1450   */\n      swap3\n      swap2\n      pop\n      pop\n      jump\t// out\n        /* \"#utility.yul\":1456:1595   */\n    tag_95:\n        /* \"#utility.yul\":1545:1551   */\n      dup3\n        /* \"#utility.yul\":1540:1543   */\n      dup2\n        /* \"#utility.yul\":1535:1538   */\n      dup4\n        /* \"#utility.yul\":1529:1552   */\n      mcopy\n        /* \"#utility.yul\":1586:1587   */\n      0x00\n        /* \"#utility.yul\":1577:1583   */\n      dup4\n        /* \"#utility.yul\":1572:1575   */\n      dup4\n        /* \"#utility.yul\":1568:1584   */\n      add\n        /* \"#utility.yul\":1561:1588   */\n      mstore\n        /* \"#utility.yul\":1456:1595   */\n      pop\n      pop\n      pop\n      jump\t// out\n        /* \"#utility.yul\":1601:1703   */\n    tag_96:\n        /* \"#utility.yul\":1642:1648   */\n      0x00\n        /* \"#utility.yul\":1693:1695   */\n      0x1f\n        /* \"#utility.yul\":1689:1696   */\n      not\n        /* \"#utility.yul\":1684:1686   */\n      0x1f\n        /* \"#utility.yul\":1677:1682   */\n      dup4\n        /* \"#utility.yul\":1673:1687   */\n      add\n        /* \"#utility.yul\":1669:1697   */\n      and\n        /* \"#utility.yul\":1659:1697   */\n      swap1\n      pop\n        /* \"#utility.yul\":1601:1703   */\n      swap2\n      swap1\n      pop\n      jump\t// out\n        /* \"#utility.yul\":1709:2086   */\n    tag_97:\n        /* \"#utility.yul\":1797:1800   */\n      0x00\n        /* \"#utility.yul\":1825:1864   */\n      tag_162\n        /* \"#utility.yul\":1858:1863   */\n      dup3\n        /* \"#utility.yul\":1825:1864   */\n      tag_93\n      jump\t// in\n    tag_162:\n        /* \"#utility.yul\":1880:1951   */\n      tag_163\n        /* \"#utility.yul\":1944:1950   */\n      dup2\n        /* \"#utility.yul\":1939:1942   */\n      dup6\n        /* \"#utility.yul\":1880:1951   */\n      tag_94\n      jump\t// in\n    tag_163:\n        /* \"#utility.yul\":1873:1951   */\n      swap4\n      pop\n        /* \"#utility.yul\":1960:2025   */\n      tag_164\n        /* \"#utility.yul\":2018:2024   */\n      dup2\n        /* \"#utility.yul\":2013:2016   */\n      dup6\n        /* \"#utility.yul\":2006:2010   */\n      0x20\n        /* \"#utility.yul\":1999:2004   */\n      dup7\n        /* \"#utility.yul\":1995:2011   */\n      add\n        /* \"#utility.yul\":1960:2025   */\n      tag_95\n      jump\t// in\n    tag_164:\n        /* \"#utility.yul\":2050:2079   */\n      tag_165\n        /* \"#utility.yul\":2072:2078   */\n      dup2\n        /* \"#utility.yul\":2050:2079   */\n      tag_96\n      jump\t// in\n    tag_165:\n        /* \"#utility.yul\":2045:2048   */\n      dup5\n        /* \"#utility.yul\":2041:2080   */\n      add\n        /* \"#utility.yul\":2034:2080   */\n      swap2\n      pop\n        /* \"#utility.yul\":1801:2086   */\n      pop\n        /* \"#utility.yul\":1709:2086   */\n      swap3\n      swap2\n      pop\n      pop\n      jump\t// out\n        /* \"#utility.yul\":2092:2182   */\n    tag_98:\n        /* \"#utility.yul\":2126:2133   */\n      0x00\n        /* \"#utility.yul\":2169:2174   */\n      dup2\n        /* \"#utility.yul\":2162:2175   */\n      iszero\n        /* \"#utility.yul\":2155:2176   */\n      iszero\n        /* \"#utility.yul\":2144:2176   */\n      swap1\n      pop\n        /* \"#utility.yul\":2092:2182   */\n      swap2\n      swap1\n      pop\n      jump\t// out\n        /* \"#utility.yul\":2188:2297   */\n    tag_99:\n        /* \"#utility.yul\":2269:2290   */\n      tag_168\n        /* \"#utility.yul\":2284:2289   */\n      dup2\n        /* \"#utility.yul\":2269:2290   */\n      tag_98\n      jump\t// in\n    tag_168:\n        /* \"#utility.yul\":2264:2267   */\n      dup3\n        /* \"#utility.yul\":2257:2291   */\n      mstore\n        /* \"#utility.yul\":2188:2297   */\n      pop\n      pop\n      jump\t// out\n        /* \"#utility.yul\":2303:3014   */\n    tag_14:\n        /* \"#utility.yul\":2508:2512   */\n      0x00\n        /* \"#utility.yul\":2546:2549   */\n      0x80\n        /* \"#utility.yul\":2535:2544   */\n      dup3\n        /* \"#utility.yul\":2531:2550   */\n      add\n        /* \"#utility.yul\":2523:2550   */\n      swap1\n      pop\n        /* \"#utility.yul\":2596:2605   */\n      dup2\n        /* \"#utility.yul\":2590:2594   */\n      dup2\n        /* \"#utility.yul\":2586:2606   */\n      sub\n        /* \"#utility.yul\":2582:2583   */\n      0x00\n        /* \"#utility.yul\":2571:2580   */\n      dup4\n        /* \"#utility.yul\":2567:2584   */\n      add\n        /* \"#utility.yul\":2560:2607   */\n      mstore\n        /* \"#utility.yul\":2624:2702   */\n      tag_170\n        /* \"#utility.yul\":2697:2701   */\n      dup2\n        /* \"#utility.yul\":2688:2694   */\n      dup8\n        /* \"#utility.yul\":2624:2702   */\n      tag_97\n      jump\t// in\n    tag_170:\n        /* \"#utility.yul\":2616:2702   */\n      swap1\n      pop\n        /* \"#utility.yul\":2749:2758   */\n      dup2\n        /* \"#utility.yul\":2743:2747   */\n      dup2\n        /* \"#utility.yul\":2739:2759   */\n      sub\n        /* \"#utility.yul\":2734:2736   */\n      0x20\n        /* \"#utility.yul\":2723:2732   */\n      dup4\n        /* \"#utility.yul\":2719:2737   */\n      add\n        /* \"#utility.yul\":2712:2760   */\n      mstore\n        /* \"#utility.yul\":2777:2855   */\n      tag_171\n        /* \"#utility.yul\":2850:2854   */\n      dup2\n        /* \"#utility.yul\":2841:2847   */\n      dup7\n        /* \"#utility.yul\":2777:2855   */\n      tag_97\n      jump\t// in\n    tag_171:\n        /* \"#utility.yul\":2769:2855   */\n      swap1\n      pop\n        /* \"#utility.yul\":2865:2931   */\n      tag_172\n        /* \"#utility.yul\":2927:2929   */\n      0x40\n        /* \"#utility.yul\":2916:2925   */\n      dup4\n        /* \"#utility.yul\":2912:2930   */\n      add\n        /* \"#utility.yul\":2903:2909   */\n      dup6\n        /* \"#utility.yul\":2865:2931   */\n      tag_99\n      jump\t// in\n    tag_172:\n        /* \"#utility.yul\":2941:3007   */\n      tag_173\n        /* \"#utility.yul\":3003:3005   */\n      0x60\n        /* \"#utility.yul\":2992:3001   */\n      dup4\n        /* \"#utility.yul\":2988:3006   */\n      add\n        /* \"#utility.yul\":2979:2985   */\n      dup5\n        /* \"#utility.yul\":2941:3007   */\n      tag_99\n      jump\t// in\n    tag_173:\n        /* \"#utility.yul\":2303:3014   */\n      swap6\n      swap5\n      pop\n      pop\n      pop\n      pop\n      pop\n      jump\t// out\n        /* \"#utility.yul\":3020:3137   */\n    tag_100:\n        /* \"#utility.yul\":3129:3130   */\n      0x00\n        /* \"#utility.yul\":3126:3127   */\n      dup1\n        /* \"#utility.yul\":3119:3131   */\n      revert\n        /* \"#utility.yul\":3143:3260   */\n    tag_101:\n        /* \"#utility.yul\":3252:3253   */\n      0x00\n        /* \"#utility.yul\":3249:3250   */\n      dup1\n        /* \"#utility.yul\":3242:3254   */\n      revert\n        /* \"#utility.yul\":3266:3446   */\n    tag_102:\n        /* \"#utility.yul\":3314:3391   */\n      0x4e487b7100000000000000000000000000000000000000000000000000000000\n        /* \"#utility.yul\":3311:3312   */\n      0x00\n        /* \"#utility.yul\":3304:3392   */\n      mstore\n        /* \"#utility.yul\":3411:3415   */\n      0x41\n        /* \"#utility.yul\":3408:3409   */\n      0x04\n        /* \"#utility.yul\":3401:3416   */\n      mstore\n        /* \"#utility.yul\":3435:3439   */\n      0x24\n        /* \"#utility.yul\":3432:3433   */\n      0x00\n        /* \"#utility.yul\":3425:3440   */\n      revert\n        /* \"#utility.yul\":3452:3733   */\n    tag_103:\n        /* \"#utility.yul\":3535:3562   */\n      tag_178\n        /* \"#utility.yul\":3557:3561   */\n      dup3\n        /* \"#utility.yul\":3535:3562   */\n      tag_96\n      jump\t// in\n    tag_178:\n        /* \"#utility.yul\":3527:3533   */\n      dup2\n        /* \"#utility.yul\":3523:3563   */\n      add\n        /* \"#utility.yul\":3665:3671   */\n      dup2\n        /* \"#utility.yul\":3653:3663   */\n      dup2\n        /* \"#utility.yul\":3650:3672   */\n      lt\n        /* \"#utility.yul\":3629:3647   */\n      0xffffffffffffffff\n        /* \"#utility.yul\":3617:3627   */\n      dup3\n        /* \"#utility.yul\":3614:3648   */\n      gt\n        /* \"#utility.yul\":3611:3673   */\n      or\n        /* \"#utility.yul\":3608:3696   */\n      iszero\n      tag_179\n      jumpi\n        /* \"#utility.yul\":3676:3694   */\n      tag_180\n      tag_102\n      jump\t// in\n    tag_180:\n        /* \"#utility.yul\":3608:3696   */\n    tag_179:\n        /* \"#utility.yul\":3716:3726   */\n      dup1\n        /* \"#utility.yul\":3712:3714   */\n      0x40\n        /* \"#utility.yul\":3705:3727   */\n      mstore\n        /* \"#utility.yul\":3495:3733   */\n      pop\n        /* \"#utility.yul\":3452:3733   */\n      pop\n      pop\n      jump\t// out\n        /* \"#utility.yul\":3739:3868   */\n    tag_104:\n        /* \"#utility.yul\":3773:3779   */\n      0x00\n        /* \"#utility.yul\":3800:3820   */\n      tag_182\n      tag_86\n      jump\t// in\n    tag_182:\n        /* \"#utility.yul\":3790:3820   */\n      swap1\n      pop\n        /* \"#utility.yul\":3829:3862   */\n      tag_183\n        /* \"#utility.yul\":3857:3861   */\n      dup3\n        /* \"#utility.yul\":3849:3855   */\n      dup3\n        /* \"#utility.yul\":3829:3862   */\n      tag_103\n      jump\t// in\n    tag_183:\n        /* \"#utility.yul\":3739:3868   */\n      swap2\n      swap1\n      pop\n      jump\t// out\n        /* \"#utility.yul\":3874:4182   */\n    tag_105:\n        /* \"#utility.yul\":3936:3940   */\n      0x00\n        /* \"#utility.yul\":4026:4044   */\n      0xffffffffffffffff\n        /* \"#utility.yul\":4018:4024   */\n      dup3\n        /* \"#utility.yul\":4015:4045   */\n      gt\n        /* \"#utility.yul\":4012:4068   */\n      iszero\n      tag_185\n      jumpi\n        /* \"#utility.yul\":4048:4066   */\n      tag_186\n      tag_102\n      jump\t// in\n    tag_186:\n        /* \"#utility.yul\":4012:4068   */\n    tag_185:\n        /* \"#utility.yul\":4086:4115   */\n      tag_187\n        /* \"#utility.yul\":4108:4114   */\n      dup3\n        /* \"#utility.yul\":4086:4115   */\n      tag_96\n      jump\t// in\n    tag_187:\n        /* \"#utility.yul\":4078:4115   */\n      swap1\n      pop\n        /* \"#utility.yul\":4170:4174   */\n      0x20\n        /* \"#utility.yul\":4164:4168   */\n      dup2\n        /* \"#utility.yul\":4160:4175   */\n      add\n        /* \"#utility.yul\":4152:4175   */\n      swap1\n      pop\n        /* \"#utility.yul\":3874:4182   */\n      swap2\n      swap1\n      pop\n      jump\t// out\n        /* \"#utility.yul\":4188:4336   */\n    tag_106:\n        /* \"#utility.yul\":4286:4292   */\n      dup3\n        /* \"#utility.yul\":4281:4284   */\n      dup2\n        /* \"#utility.yul\":4276:4279   */\n      dup4\n        /* \"#utility.yul\":4263:4293   */\n      calldatacopy\n        /* \"#utility.yul\":4327:4328   */\n      0x00\n        /* \"#utility.yul\":4318:4324   */\n      dup4\n        /* \"#utility.yul\":4313:4316   */\n      dup4\n        /* \"#utility.yul\":4309:4325   */\n      add\n        /* \"#utility.yul\":4302:4329   */\n      mstore\n        /* \"#utility.yul\":4188:4336   */\n      pop\n      pop\n      pop\n      jump\t// out\n        /* \"#utility.yul\":4342:4767   */\n    tag_107:\n        /* \"#utility.yul\":4420:4425   */\n      0x00\n        /* \"#utility.yul\":4445:4511   */\n      tag_190\n        /* \"#utility.yul\":4461:4510   */\n      tag_191\n        /* \"#utility.yul\":4503:4509   */\n      dup5\n        /* \"#utility.yul\":4461:4510   */\n      tag_105\n      jump\t// in\n    tag_191:\n        /* \"#utility.yul\":4445:4511   */\n      tag_104\n      jump\t// in\n    tag_190:\n        /* \"#utility.yul\":4436:4511   */\n      swap1\n      pop\n        /* \"#utility.yul\":4534:4540   */\n      dup3\n        /* \"#utility.yul\":4527:4532   */\n      dup2\n        /* \"#utility.yul\":4520:4541   */\n      mstore\n        /* \"#utility.yul\":4572:4576   */\n      0x20\n        /* \"#utility.yul\":4565:4570   */\n      dup2\n        /* \"#utility.yul\":4561:4577   */\n      add\n        /* \"#utility.yul\":4610:4613   */\n      dup5\n        /* \"#utility.yul\":4601:4607   */\n      dup5\n        /* \"#utility.yul\":4596:4599   */\n      dup5\n        /* \"#utility.yul\":4592:4608   */\n      add\n        /* \"#utility.yul\":4589:4614   */\n      gt\n        /* \"#utility.yul\":4586:4698   */\n      iszero\n      tag_192\n      jumpi\n        /* \"#utility.yul\":4617:4696   */\n      tag_193\n      tag_101\n      jump\t// in\n    tag_193:\n        /* \"#utility.yul\":4586:4698   */\n    tag_192:\n        /* \"#utility.yul\":4707:4761   */\n      tag_194\n        /* \"#utility.yul\":4754:4760   */\n      dup5\n        /* \"#utility.yul\":4749:4752   */\n      dup3\n        /* \"#utility.yul\":4744:4747   */\n      dup6\n        /* \"#utility.yul\":4707:4761   */\n      tag_106\n      jump\t// in\n    tag_194:\n        /* \"#utility.yul\":4426:4767   */\n      pop\n        /* \"#utility.yul\":4342:4767   */\n      swap4\n      swap3\n      pop\n      pop\n      pop\n      jump\t// out\n        /* \"#utility.yul\":4787:5127   */\n    tag_108:\n        /* \"#utility.yul\":4843:4848   */\n      0x00\n        /* \"#utility.yul\":4892:4895   */\n      dup3\n        /* \"#utility.yul\":4885:4889   */\n      0x1f\n        /* \"#utility.yul\":4877:4883   */\n      dup4\n        /* \"#utility.yul\":4873:4890   */\n      add\n        /* \"#utility.yul\":4869:4896   */\n      slt\n        /* \"#utility.yul\":4859:4981   */\n      tag_196\n      jumpi\n        /* \"#utility.yul\":4900:4979   */\n      tag_197\n      tag_100\n      jump\t// in\n    tag_197:\n        /* \"#utility.yul\":4859:4981   */\n    tag_196:\n        /* \"#utility.yul\":5017:5023   */\n      dup2\n        /* \"#utility.yul\":5004:5024   */\n      calldataload\n        /* \"#utility.yul\":5042:5121   */\n      tag_198\n        /* \"#utility.yul\":5117:5120   */\n      dup5\n        /* \"#utility.yul\":5109:5115   */\n      dup3\n        /* \"#utility.yul\":5102:5106   */\n      0x20\n        /* \"#utility.yul\":5094:5100   */\n      dup7\n        /* \"#utility.yul\":5090:5107   */\n      add\n        /* \"#utility.yul\":5042:5121   */\n      tag_107\n      jump\t// in\n    tag_198:\n        /* \"#utility.yul\":5033:5121   */\n      swap2\n      pop\n        /* \"#utility.yul\":4849:5127   */\n      pop\n        /* \"#utility.yul\":4787:5127   */\n      swap3\n      swap2\n      pop\n      pop\n      jump\t// out\n        /* \"#utility.yul\":5133:6292   */\n    tag_23:\n        /* \"#utility.yul\":5240:5246   */\n      0x00\n        /* \"#utility.yul\":5248:5254   */\n      dup1\n        /* \"#utility.yul\":5256:5262   */\n      0x00\n        /* \"#utility.yul\":5305:5307   */\n      0x60\n        /* \"#utility.yul\":5293:5302   */\n      dup5\n        /* \"#utility.yul\":5284:5291   */\n      dup7\n        /* \"#utility.yul\":5280:5303   */\n      sub\n        /* \"#utility.yul\":5276:5308   */\n      slt\n        /* \"#utility.yul\":5273:5392   */\n      iszero\n      tag_200\n      jumpi\n        /* \"#utility.yul\":5311:5390   */\n      tag_201\n      tag_87\n      jump\t// in\n    tag_201:\n        /* \"#utility.yul\":5273:5392   */\n    tag_200:\n        /* \"#utility.yul\":5459:5460   */\n      0x00\n        /* \"#utility.yul\":5448:5457   */\n      dup5\n        /* \"#utility.yul\":5444:5461   */\n      add\n        /* \"#utility.yul\":5431:5462   */\n      calldataload\n        /* \"#utility.yul\":5489:5507   */\n      0xffffffffffffffff\n        /* \"#utility.yul\":5481:5487   */\n      dup2\n        /* \"#utility.yul\":5478:5508   */\n      gt\n        /* \"#utility.yul\":5475:5592   */\n      iszero\n      tag_202\n      jumpi\n        /* \"#utility.yul\":5511:5590   */\n      tag_203\n      tag_88\n      jump\t// in\n    tag_203:\n        /* \"#utility.yul\":5475:5592   */\n    tag_202:\n        /* \"#utility.yul\":5616:5679   */\n      tag_204\n        /* \"#utility.yul\":5671:5678   */\n      dup7\n        /* \"#utility.yul\":5662:5668   */\n      dup3\n        /* \"#utility.yul\":5651:5660   */\n      dup8\n        /* \"#utility.yul\":5647:5669   */\n      add\n        /* \"#utility.yul\":5616:5679   */\n      tag_108\n      jump\t// in\n    tag_204:\n        /* \"#utility.yul\":5606:5679   */\n      swap4\n      pop\n        /* \"#utility.yul\":5402:5689   */\n      pop\n        /* \"#utility.yul\":5756:5758   */\n      0x20\n        /* \"#utility.yul\":5745:5754   */\n      dup5\n        /* \"#utility.yul\":5741:5759   */\n      add\n        /* \"#utility.yul\":5728:5760   */\n      calldataload\n        /* \"#utility.yul\":5787:5805   */\n      0xffffffffffffffff\n        /* \"#utility.yul\":5779:5785   */\n      dup2\n        /* \"#utility.yul\":5776:5806   */\n      gt\n        /* \"#utility.yul\":5773:5890   */\n      iszero\n      tag_205\n      jumpi\n        /* \"#utility.yul\":5809:5888   */\n      tag_206\n      tag_88\n      jump\t// in\n    tag_206:\n        /* \"#utility.yul\":5773:5890   */\n    tag_205:\n        /* \"#utility.yul\":5914:5977   */\n      tag_207\n        /* \"#utility.yul\":5969:5976   */\n      dup7\n        /* \"#utility.yul\":5960:5966   */\n      dup3\n        /* \"#utility.yul\":5949:5958   */\n      dup8\n        /* \"#utility.yul\":5945:5967   */\n      add\n        /* \"#utility.yul\":5914:5977   */\n      tag_108\n      jump\t// in\n    tag_207:\n        /* \"#utility.yul\":5904:5977   */\n      swap3\n      pop\n        /* \"#utility.yul\":5699:5987   */\n      pop\n        /* \"#utility.yul\":6054:6056   */\n      0x40\n        /* \"#utility.yul\":6043:6052   */\n      dup5\n        /* \"#utility.yul\":6039:6057   */\n      add\n        /* \"#utility.yul\":6026:6058   */\n      calldataload\n        /* \"#utility.yul\":6085:6103   */\n      0xffffffffffffffff\n        /* \"#utility.yul\":6077:6083   */\n      dup2\n        /* \"#utility.yul\":6074:6104   */\n      gt\n        /* \"#utility.yul\":6071:6188   */\n      iszero\n      tag_208\n      jumpi\n        /* \"#utility.yul\":6107:6186   */\n      tag_209\n      tag_88\n      jump\t// in\n    tag_209:\n        /* \"#utility.yul\":6071:6188   */\n    tag_208:\n        /* \"#utility.yul\":6212:6275   */\n      tag_210\n        /* \"#utility.yul\":6267:6274   */\n      dup7\n        /* \"#utility.yul\":6258:6264   */\n      dup3\n        /* \"#utility.yul\":6247:6256   */\n      dup8\n        /* \"#utility.yul\":6243:6265   */\n      add\n        /* \"#utility.yul\":6212:6275   */\n      tag_108\n      jump\t// in\n    tag_210:\n        /* \"#utility.yul\":6202:6275   */\n      swap2\n      pop\n        /* \"#utility.yul\":5997:6285   */\n      pop\n        /* \"#utility.yul\":5133:6292   */\n      swap3\n      pop\n      swap3\n      pop\n      swap3\n      jump\t// out\n        /* \"#utility.yul\":6298:6416   */\n    tag_109:\n        /* \"#utility.yul\":6385:6409   */\n      tag_212\n        /* \"#utility.yul\":6403:6408   */\n      dup2\n        /* \"#utility.yul\":6385:6409   */\n      tag_90\n      jump\t// in\n    tag_212:\n        /* \"#utility.yul\":6380:6383   */\n      dup3\n        /* \"#utility.yul\":6373:6410   */\n      mstore\n        /* \"#utility.yul\":6298:6416   */\n      pop\n      pop\n      jump\t// out\n        /* \"#utility.yul\":6422:6644   */\n    tag_31:\n        /* \"#utility.yul\":6515:6519   */\n      0x00\n        /* \"#utility.yul\":6553:6555   */\n      0x20\n        /* \"#utility.yul\":6542:6551   */\n      dup3\n        /* \"#utility.yul\":6538:6556   */\n      add\n        /* \"#utility.yul\":6530:6556   */\n      swap1\n      pop\n        /* \"#utility.yul\":6566:6637   */\n      tag_214\n        /* \"#utility.yul\":6634:6635   */\n      0x00\n        /* \"#utility.yul\":6623:6632   */\n      dup4\n        /* \"#utility.yul\":6619:6636   */\n      add\n        /* \"#utility.yul\":6610:6616   */\n      dup5\n        /* \"#utility.yul\":6566:6637   */\n      tag_109\n      jump\t// in\n    tag_214:\n        /* \"#utility.yul\":6422:6644   */\n      swap3\n      swap2\n      pop\n      pop\n      jump\t// out\n        /* \"#utility.yul\":6650:6830   */\n    tag_110:\n        /* \"#utility.yul\":6698:6775   */\n      0x4e487b7100000000000000000000000000000000000000000000000000000000\n        /* \"#utility.yul\":6695:6696   */\n      0x00\n        /* \"#utility.yul\":6688:6776   */\n      mstore\n        /* \"#utility.yul\":6795:6799   */\n      0x22\n        /* \"#utility.yul\":6792:6793   */\n      0x04\n        /* \"#utility.yul\":6785:6800   */\n      mstore\n        /* \"#utility.yul\":6819:6823   */\n      0x24\n        /* \"#utility.yul\":6816:6817   */\n      0x00\n        /* \"#utility.yul\":6809:6824   */\n      revert\n        /* \"#utility.yul\":6836:7156   */\n    tag_34:\n        /* \"#utility.yul\":6880:6886   */\n      0x00\n        /* \"#utility.yul\":6917:6918   */\n      0x02\n        /* \"#utility.yul\":6911:6915   */\n      dup3\n        /* \"#utility.yul\":6907:6919   */\n      div\n        /* \"#utility.yul\":6897:6919   */\n      swap1\n      pop\n        /* \"#utility.yul\":6964:6965   */\n      0x01\n        /* \"#utility.yul\":6958:6962   */\n      dup3\n        /* \"#utility.yul\":6954:6966   */\n      and\n        /* \"#utility.yul\":6985:7003   */\n      dup1\n        /* \"#utility.yul\":6975:7056   */\n      tag_217\n      jumpi\n        /* \"#utility.yul\":7041:7045   */\n      0x7f\n        /* \"#utility.yul\":7033:7039   */\n      dup3\n        /* \"#utility.yul\":7029:7046   */\n      and\n        /* \"#utility.yul\":7019:7046   */\n      swap2\n      pop\n        /* \"#utility.yul\":6975:7056   */\n    tag_217:\n        /* \"#utility.yul\":7103:7105   */\n      0x20\n        /* \"#utility.yul\":7095:7101   */\n      dup3\n        /* \"#utility.yul\":7092:7106   */\n      lt\n        /* \"#utility.yul\":7072:7090   */\n      dup2\n        /* \"#utility.yul\":7069:7107   */\n      sub\n        /* \"#utility.yul\":7066:7150   */\n      tag_218\n      jumpi\n        /* \"#utility.yul\":7122:7140   */\n      tag_219\n      tag_110\n      jump\t// in\n    tag_219:\n        /* \"#utility.yul\":7066:7150   */\n    tag_218:\n        /* \"#utility.yul\":6887:7156   */\n      pop\n        /* \"#utility.yul\":6836:7156   */\n      swap2\n      swap1\n      pop\n      jump\t// out\n        /* \"#utility.yul\":7162:7397   */\n    tag_111:\n        /* \"#utility.yul\":7302:7336   */\n      0x4f6e6c792074686520636f6e7472616374206f776e65722063616e2070657266\n        /* \"#utility.yul\":7298:7299   */\n      0x00\n        /* \"#utility.yul\":7290:7296   */\n      dup3\n        /* \"#utility.yul\":7286:7300   */\n      add\n        /* \"#utility.yul\":7279:7337   */\n      mstore\n        /* \"#utility.yul\":7371:7389   */\n      0x6f726d207468697320616374696f6e2e00000000000000000000000000000000\n        /* \"#utility.yul\":7366:7368   */\n      0x20\n        /* \"#utility.yul\":7358:7364   */\n      dup3\n        /* \"#utility.yul\":7354:7369   */\n      add\n        /* \"#utility.yul\":7347:7390   */\n      mstore\n        /* \"#utility.yul\":7162:7397   */\n      pop\n      jump\t// out\n        /* \"#utility.yul\":7403:7769   */\n    tag_112:\n        /* \"#utility.yul\":7545:7548   */\n      0x00\n        /* \"#utility.yul\":7566:7633   */\n      tag_222\n        /* \"#utility.yul\":7630:7632   */\n      0x30\n        /* \"#utility.yul\":7625:7628   */\n      dup4\n        /* \"#utility.yul\":7566:7633   */\n      tag_94\n      jump\t// in\n    tag_222:\n        /* \"#utility.yul\":7559:7633   */\n      swap2\n      pop\n        /* \"#utility.yul\":7642:7735   */\n      tag_223\n        /* \"#utility.yul\":7731:7734   */\n      dup3\n        /* \"#utility.yul\":7642:7735   */\n      tag_111\n      jump\t// in\n    tag_223:\n        /* \"#utility.yul\":7760:7762   */\n      0x40\n        /* \"#utility.yul\":7755:7758   */\n      dup3\n        /* \"#utility.yul\":7751:7763   */\n      add\n        /* \"#utility.yul\":7744:7763   */\n      swap1\n      pop\n        /* \"#utility.yul\":7403:7769   */\n      swap2\n      swap1\n      pop\n      jump\t// out\n        /* \"#utility.yul\":7775:8194   */\n    tag_52:\n        /* \"#utility.yul\":7941:7945   */\n      0x00\n        /* \"#utility.yul\":7979:7981   */\n      0x20\n        /* \"#utility.yul\":7968:7977   */\n      dup3\n        /* \"#utility.yul\":7964:7982   */\n      add\n        /* \"#utility.yul\":7956:7982   */\n      swap1\n      pop\n        /* \"#utility.yul\":8028:8037   */\n      dup2\n        /* \"#utility.yul\":8022:8026   */\n      dup2\n        /* \"#utility.yul\":8018:8038   */\n      sub\n        /* \"#utility.yul\":8014:8015   */\n      0x00\n        /* \"#utility.yul\":8003:8012   */\n      dup4\n        /* \"#utility.yul\":7999:8016   */\n      add\n        /* \"#utility.yul\":7992:8039   */\n      mstore\n        /* \"#utility.yul\":8056:8187   */\n      tag_225\n        /* \"#utility.yul\":8182:8186   */\n      dup2\n        /* \"#utility.yul\":8056:8187   */\n      tag_112\n      jump\t// in\n    tag_225:\n        /* \"#utility.yul\":8048:8187   */\n      swap1\n      pop\n        /* \"#utility.yul\":7775:8194   */\n      swap2\n      swap1\n      pop\n      jump\t// out\n        /* \"#utility.yul\":8200:8376   */\n    tag_113:\n        /* \"#utility.yul\":8340:8368   */\n      0x566572696669657220697320616c72656164792061646465642e000000000000\n        /* \"#utility.yul\":8336:8337   */\n      0x00\n        /* \"#utility.yul\":8328:8334   */\n      dup3\n        /* \"#utility.yul\":8324:8338   */\n      add\n        /* \"#utility.yul\":8317:8369   */\n      mstore\n        /* \"#utility.yul\":8200:8376   */\n      pop\n      jump\t// out\n        /* \"#utility.yul\":8382:8748   */\n    tag_114:\n        /* \"#utility.yul\":8524:8527   */\n      0x00\n        /* \"#utility.yul\":8545:8612   */\n      tag_228\n        /* \"#utility.yul\":8609:8611   */\n      0x1a\n        /* \"#utility.yul\":8604:8607   */\n      dup4\n        /* \"#utility.yul\":8545:8612   */\n      tag_94\n      jump\t// in\n    tag_228:\n        /* \"#utility.yul\":8538:8612   */\n      swap2\n      pop\n        /* \"#utility.yul\":8621:8714   */\n      tag_229\n        /* \"#utility.yul\":8710:8713   */\n      dup3\n        /* \"#utility.yul\":8621:8714   */\n      tag_113\n      jump\t// in\n    tag_229:\n        /* \"#utility.yul\":8739:8741   */\n      0x20\n        /* \"#utility.yul\":8734:8737   */\n      dup3\n        /* \"#utility.yul\":8730:8742   */\n      add\n        /* \"#utility.yul\":8723:8742   */\n      swap1\n      pop\n        /* \"#utility.yul\":8382:8748   */\n      swap2\n      swap1\n      pop\n      jump\t// out\n        /* \"#utility.yul\":8754:9173   */\n    tag_56:\n        /* \"#utility.yul\":8920:8924   */\n      0x00\n        /* \"#utility.yul\":8958:8960   */\n      0x20\n        /* \"#utility.yul\":8947:8956   */\n      dup3\n        /* \"#utility.yul\":8943:8961   */\n      add\n        /* \"#utility.yul\":8935:8961   */\n      swap1\n      pop\n        /* \"#utility.yul\":9007:9016   */\n      dup2\n        /* \"#utility.yul\":9001:9005   */\n      dup2\n        /* \"#utility.yul\":8997:9017   */\n      sub\n        /* \"#utility.yul\":8993:8994   */\n      0x00\n        /* \"#utility.yul\":8982:8991   */\n      dup4\n        /* \"#utility.yul\":8978:8995   */\n      add\n        /* \"#utility.yul\":8971:9018   */\n      mstore\n        /* \"#utility.yul\":9035:9166   */\n      tag_231\n        /* \"#utility.yul\":9161:9165   */\n      dup2\n        /* \"#utility.yul\":9035:9166   */\n      tag_114\n      jump\t// in\n    tag_231:\n        /* \"#utility.yul\":9027:9166   */\n      swap1\n      pop\n        /* \"#utility.yul\":8754:9173   */\n      swap2\n      swap1\n      pop\n      jump\t// out\n        /* \"#utility.yul\":9179:9418   */\n    tag_115:\n        /* \"#utility.yul\":9319:9353   */\n      0x4f6e6c7920616e20617574686f72697a65642076657269666965722063616e20\n        /* \"#utility.yul\":9315:9316   */\n      0x00\n        /* \"#utility.yul\":9307:9313   */\n      dup3\n        /* \"#utility.yul\":9303:9317   */\n      add\n        /* \"#utility.yul\":9296:9354   */\n      mstore\n        /* \"#utility.yul\":9388:9410   */\n      0x706572666f726d207468697320616374696f6e2e000000000000000000000000\n        /* \"#utility.yul\":9383:9385   */\n      0x20\n        /* \"#utility.yul\":9375:9381   */\n      dup3\n        /* \"#utility.yul\":9371:9386   */\n      add\n        /* \"#utility.yul\":9364:9411   */\n      mstore\n        /* \"#utility.yul\":9179:9418   */\n      pop\n      jump\t// out\n        /* \"#utility.yul\":9424:9790   */\n    tag_116:\n        /* \"#utility.yul\":9566:9569   */\n      0x00\n        /* \"#utility.yul\":9587:9654   */\n      tag_234\n        /* \"#utility.yul\":9651:9653   */\n      0x34\n        /* \"#utility.yul\":9646:9649   */\n      dup4\n        /* \"#utility.yul\":9587:9654   */\n      tag_94\n      jump\t// in\n    tag_234:\n        /* \"#utility.yul\":9580:9654   */\n      swap2\n      pop\n        /* \"#utility.yul\":9663:9756   */\n      tag_235\n        /* \"#utility.yul\":9752:9755   */\n      dup3\n        /* \"#utility.yul\":9663:9756   */\n      tag_115\n      jump\t// in\n    tag_235:\n        /* \"#utility.yul\":9781:9783   */\n      0x40\n        /* \"#utility.yul\":9776:9779   */\n      dup3\n        /* \"#utility.yul\":9772:9784   */\n      add\n        /* \"#utility.yul\":9765:9784   */\n      swap1\n      pop\n        /* \"#utility.yul\":9424:9790   */\n      swap2\n      swap1\n      pop\n      jump\t// out\n        /* \"#utility.yul\":9796:10215   */\n    tag_60:\n        /* \"#utility.yul\":9962:9966   */\n      0x00\n        /* \"#utility.yul\":10000:10002   */\n      0x20\n        /* \"#utility.yul\":9989:9998   */\n      dup3\n        /* \"#utility.yul\":9985:10003   */\n      add\n        /* \"#utility.yul\":9977:10003   */\n      swap1\n      pop\n        /* \"#utility.yul\":10049:10058   */\n      dup2\n        /* \"#utility.yul\":10043:10047   */\n      dup2\n        /* \"#utility.yul\":10039:10059   */\n      sub\n        /* \"#utility.yul\":10035:10036   */\n      0x00\n        /* \"#utility.yul\":10024:10033   */\n      dup4\n        /* \"#utility.yul\":10020:10037   */\n      add\n        /* \"#utility.yul\":10013:10060   */\n      mstore\n        /* \"#utility.yul\":10077:10208   */\n      tag_237\n        /* \"#utility.yul\":10203:10207   */\n      dup2\n        /* \"#utility.yul\":10077:10208   */\n      tag_116\n      jump\t// in\n    tag_237:\n        /* \"#utility.yul\":10069:10208   */\n      swap1\n      pop\n        /* \"#utility.yul\":9796:10215   */\n      swap2\n      swap1\n      pop\n      jump\t// out\n        /* \"#utility.yul\":10221:10399   */\n    tag_117:\n        /* \"#utility.yul\":10361:10391   */\n      0x4964656e7469747920697320616c726561647920766572696669656400000000\n        /* \"#utility.yul\":10357:10358   */\n      0x00\n        /* \"#utility.yul\":10349:10355   */\n      dup3\n        /* \"#utility.yul\":10345:10359   */\n      add\n        /* \"#utility.yul\":10338:10392   */\n      mstore\n        /* \"#utility.yul\":10221:10399   */\n      pop\n      jump\t// out\n        /* \"#utility.yul\":10405:10771   */\n    tag_118:\n        /* \"#utility.yul\":10547:10550   */\n      0x00\n        /* \"#utility.yul\":10568:10635   */\n      tag_240\n        /* \"#utility.yul\":10632:10634   */\n      0x1c\n        /* \"#utility.yul\":10627:10630   */\n      dup4\n        /* \"#utility.yul\":10568:10635   */\n      tag_94\n      jump\t// in\n    tag_240:\n        /* \"#utility.yul\":10561:10635   */\n      swap2\n      pop\n        /* \"#utility.yul\":10644:10737   */\n      tag_241\n        /* \"#utility.yul\":10733:10736   */\n      dup3\n        /* \"#utility.yul\":10644:10737   */\n      tag_117\n      jump\t// in\n    tag_241:\n        /* \"#utility.yul\":10762:10764   */\n      0x20\n        /* \"#utility.yul\":10757:10760   */\n      dup3\n        /* \"#utility.yul\":10753:10765   */\n      add\n        /* \"#utility.yul\":10746:10765   */\n      swap1\n      pop\n        /* \"#utility.yul\":10405:10771   */\n      swap2\n      swap1\n      pop\n      jump\t// out\n        /* \"#utility.yul\":10777:11196   */\n    tag_64:\n        /* \"#utility.yul\":10943:10947   */\n      0x00\n        /* \"#utility.yul\":10981:10983   */\n      0x20\n        /* \"#utility.yul\":10970:10979   */\n      dup3\n        /* \"#utility.yul\":10966:10984   */\n      add\n        /* \"#utility.yul\":10958:10984   */\n      swap1\n      pop\n        /* \"#utility.yul\":11030:11039   */\n      dup2\n        /* \"#utility.yul\":11024:11028   */\n      dup2\n        /* \"#utility.yul\":11020:11040   */\n      sub\n        /* \"#utility.yul\":11016:11017   */\n      0x00\n        /* \"#utility.yul\":11005:11014   */\n      dup4\n        /* \"#utility.yul\":11001:11018   */\n      add\n        /* \"#utility.yul\":10994:11041   */\n      mstore\n        /* \"#utility.yul\":11058:11189   */\n      tag_243\n        /* \"#utility.yul\":11184:11188   */\n      dup2\n        /* \"#utility.yul\":11058:11189   */\n      tag_118\n      jump\t// in\n    tag_243:\n        /* \"#utility.yul\":11050:11189   */\n      swap1\n      pop\n        /* \"#utility.yul\":10777:11196   */\n      swap2\n      swap1\n      pop\n      jump\t// out\n        /* \"#utility.yul\":11202:11377   */\n    tag_119:\n        /* \"#utility.yul\":11342:11369   */\n      0x4964656e7469747920686173206265656e207265766f6b656400000000000000\n        /* \"#utility.yul\":11338:11339   */\n      0x00\n        /* \"#utility.yul\":11330:11336   */\n      dup3\n        /* \"#utility.yul\":11326:11340   */\n      add\n        /* \"#utility.yul\":11319:11370   */\n      mstore\n        /* \"#utility.yul\":11202:11377   */\n      pop\n      jump\t// out\n        /* \"#utility.yul\":11383:11749   */\n    tag_120:\n        /* \"#utility.yul\":11525:11528   */\n      0x00\n        /* \"#utility.yul\":11546:11613   */\n      tag_246\n        /* \"#utility.yul\":11610:11612   */\n      0x19\n        /* \"#utility.yul\":11605:11608   */\n      dup4\n        /* \"#utility.yul\":11546:11613   */\n      tag_94\n      jump\t// in\n    tag_246:\n        /* \"#utility.yul\":11539:11613   */\n      swap2\n      pop\n        /* \"#utility.yul\":11622:11715   */\n      tag_247\n        /* \"#utility.yul\":11711:11714   */\n      dup3\n        /* \"#utility.yul\":11622:11715   */\n      tag_119\n      jump\t// in\n    tag_247:\n        /* \"#utility.yul\":11740:11742   */\n      0x20\n        /* \"#utility.yul\":11735:11738   */\n      dup3\n        /* \"#utility.yul\":11731:11743   */\n      add\n        /* \"#utility.yul\":11724:11743   */\n      swap1\n      pop\n        /* \"#utility.yul\":11383:11749   */\n      swap2\n      swap1\n      pop\n      jump\t// out\n        /* \"#utility.yul\":11755:12174   */\n    tag_67:\n        /* \"#utility.yul\":11921:11925   */\n      0x00\n        /* \"#utility.yul\":11959:11961   */\n      0x20\n        /* \"#utility.yul\":11948:11957   */\n      dup3\n        /* \"#utility.yul\":11944:11962   */\n      add\n        /* \"#utility.yul\":11936:11962   */\n      swap1\n      pop\n        /* \"#utility.yul\":12008:12017   */\n      dup2\n        /* \"#utility.yul\":12002:12006   */\n      dup2\n        /* \"#utility.yul\":11998:12018   */\n      sub\n        /* \"#utility.yul\":11994:11995   */\n      0x00\n        /* \"#utility.yul\":11983:11992   */\n      dup4\n        /* \"#utility.yul\":11979:11996   */\n      add\n        /* \"#utility.yul\":11972:12019   */\n      mstore\n        /* \"#utility.yul\":12036:12167   */\n      tag_249\n        /* \"#utility.yul\":12162:12166   */\n      dup2\n        /* \"#utility.yul\":12036:12167   */\n      tag_120\n      jump\t// in\n    tag_249:\n        /* \"#utility.yul\":12028:12167   */\n      swap1\n      pop\n        /* \"#utility.yul\":11755:12174   */\n      swap2\n      swap1\n      pop\n      jump\t// out\n        /* \"#utility.yul\":12180:12357   */\n    tag_121:\n        /* \"#utility.yul\":12320:12349   */\n      0x4964656e7469747920616c726561647920726567697374657265640000000000\n        /* \"#utility.yul\":12316:12317   */\n      0x00\n        /* \"#utility.yul\":12308:12314   */\n      dup3\n        /* \"#utility.yul\":12304:12318   */\n      add\n        /* \"#utility.yul\":12297:12350   */\n      mstore\n        /* \"#utility.yul\":12180:12357   */\n      pop\n      jump\t// out\n        /* \"#utility.yul\":12363:12729   */\n    tag_122:\n        /* \"#utility.yul\":12505:12508   */\n      0x00\n        /* \"#utility.yul\":12526:12593   */\n      tag_252\n        /* \"#utility.yul\":12590:12592   */\n      0x1b\n        /* \"#utility.yul\":12585:12588   */\n      dup4\n        /* \"#utility.yul\":12526:12593   */\n      tag_94\n      jump\t// in\n    tag_252:\n        /* \"#utility.yul\":12519:12593   */\n      swap2\n      pop\n        /* \"#utility.yul\":12602:12695   */\n      tag_253\n        /* \"#utility.yul\":12691:12694   */\n      dup3\n        /* \"#utility.yul\":12602:12695   */\n      tag_121\n      jump\t// in\n    tag_253:\n        /* \"#utility.yul\":12720:12722   */\n      0x20\n        /* \"#utility.yul\":12715:12718   */\n      dup3\n        /* \"#utility.yul\":12711:12723   */\n      add\n        /* \"#utility.yul\":12704:12723   */\n      swap1\n      pop\n        /* \"#utility.yul\":12363:12729   */\n      swap2\n      swap1\n      pop\n      jump\t// out\n        /* \"#utility.yul\":12735:13154   */\n    tag_72:\n        /* \"#utility.yul\":12901:12905   */\n      0x00\n        /* \"#utility.yul\":12939:12941   */\n      0x20\n        /* \"#utility.yul\":12928:12937   */\n      dup3\n        /* \"#utility.yul\":12924:12942   */\n      add\n        /* \"#utility.yul\":12916:12942   */\n      swap1\n      pop\n        /* \"#utility.yul\":12988:12997   */\n      dup2\n        /* \"#utility.yul\":12982:12986   */\n      dup2\n        /* \"#utility.yul\":12978:12998   */\n      sub\n        /* \"#utility.yul\":12974:12975   */\n      0x00\n        /* \"#utility.yul\":12963:12972   */\n      dup4\n        /* \"#utility.yul\":12959:12976   */\n      add\n        /* \"#utility.yul\":12952:12999   */\n      mstore\n        /* \"#utility.yul\":13016:13147   */\n      tag_255\n        /* \"#utility.yul\":13142:13146   */\n      dup2\n        /* \"#utility.yul\":13016:13147   */\n      tag_122\n      jump\t// in\n    tag_255:\n        /* \"#utility.yul\":13008:13147   */\n      swap1\n      pop\n        /* \"#utility.yul\":12735:13154   */\n      swap2\n      swap1\n      pop\n      jump\t// out\n        /* \"#utility.yul\":13160:13301   */\n    tag_123:\n        /* \"#utility.yul\":13209:13213   */\n      0x00\n        /* \"#utility.yul\":13232:13235   */\n      dup2\n        /* \"#utility.yul\":13224:13235   */\n      swap1\n      pop\n        /* \"#utility.yul\":13255:13258   */\n      dup2\n        /* \"#utility.yul\":13252:13253   */\n      0x00\n        /* \"#utility.yul\":13245:13259   */\n      mstore\n        /* \"#utility.yul\":13289:13293   */\n      0x20\n        /* \"#utility.yul\":13286:13287   */\n      0x00\n        /* \"#utility.yul\":13276:13294   */\n      keccak256\n        /* \"#utility.yul\":13268:13294   */\n      swap1\n      pop\n        /* \"#utility.yul\":13160:13301   */\n      swap2\n      swap1\n      pop\n      jump\t// out\n        /* \"#utility.yul\":13307:13400   */\n    tag_124:\n        /* \"#utility.yul\":13344:13350   */\n      0x00\n        /* \"#utility.yul\":13391:13393   */\n      0x20\n        /* \"#utility.yul\":13386:13388   */\n      0x1f\n        /* \"#utility.yul\":13379:13384   */\n      dup4\n        /* \"#utility.yul\":13375:13389   */\n      add\n        /* \"#utility.yul\":13371:13394   */\n      div\n        /* \"#utility.yul\":13361:13394   */\n      swap1\n      pop\n        /* \"#utility.yul\":13307:13400   */\n      swap2\n      swap1\n      pop\n      jump\t// out\n        /* \"#utility.yul\":13406:13513   */\n    tag_125:\n        /* \"#utility.yul\":13450:13458   */\n      0x00\n        /* \"#utility.yul\":13500:13505   */\n      dup3\n        /* \"#utility.yul\":13494:13498   */\n      dup3\n        /* \"#utility.yul\":13490:13506   */\n      shl\n        /* \"#utility.yul\":13469:13506   */\n      swap1\n      pop\n        /* \"#utility.yul\":13406:13513   */\n      swap3\n      swap2\n      pop\n      pop\n      jump\t// out\n        /* \"#utility.yul\":13519:13912   */\n    tag_126:\n        /* \"#utility.yul\":13588:13594   */\n      0x00\n        /* \"#utility.yul\":13638:13639   */\n      0x08\n        /* \"#utility.yul\":13626:13636   */\n      dup4\n        /* \"#utility.yul\":13622:13640   */\n      mul\n        /* \"#utility.yul\":13661:13758   */\n      tag_260\n        /* \"#utility.yul\":13691:13757   */\n      0xffffffffffffffffffffffffffffffffffffffffffffffffffffffffffffffff\n        /* \"#utility.yul\":13680:13689   */\n      dup3\n        /* \"#utility.yul\":13661:13758   */\n      tag_125\n      jump\t// in\n    tag_260:\n        /* \"#utility.yul\":13779:13818   */\n      tag_261\n        /* \"#utility.yul\":13809:13817   */\n      dup7\n        /* \"#utility.yul\":13798:13807   */\n      dup4\n        /* \"#utility.yul\":13779:13818   */\n      tag_125\n      jump\t// in\n    tag_261:\n        /* \"#utility.yul\":13767:13818   */\n      swap6\n      pop\n        /* \"#utility.yul\":13851:13855   */\n      dup1\n        /* \"#utility.yul\":13847:13856   */\n      not\n        /* \"#utility.yul\":13840:13845   */\n      dup5\n        /* \"#utility.yul\":13836:13857   */\n      and\n        /* \"#utility.yul\":13827:13857   */\n      swap4\n      pop\n        /* \"#utility.yul\":13900:13904   */\n      dup1\n        /* \"#utility.yul\":13890:13898   */\n      dup7\n        /* \"#utility.yul\":13886:13905   */\n      and\n        /* \"#utility.yul\":13879:13884   */\n      dup5\n        /* \"#utility.yul\":13876:13906   */\n      or\n        /* \"#utility.yul\":13866:13906   */\n      swap3\n      pop\n        /* \"#utility.yul\":13595:13912   */\n      pop\n      pop\n        /* \"#utility.yul\":13519:13912   */\n      swap4\n      swap3\n      pop\n      pop\n      pop\n      jump\t// out\n        /* \"#utility.yul\":13918:13995   */\n    tag_127:\n        /* \"#utility.yul\":13955:13962   */\n      0x00\n        /* \"#utility.yul\":13984:13989   */\n      dup2\n        /* \"#utility.yul\":13973:13989   */\n      swap1\n      pop\n        /* \"#utility.yul\":13918:13995   */\n      swap2\n      swap1\n      pop\n      jump\t// out\n        /* \"#utility.yul\":14001:14061   */\n    tag_128:\n        /* \"#utility.yul\":14029:14032   */\n      0x00\n        /* \"#utility.yul\":14050:14055   */\n      dup2\n        /* \"#utility.yul\":14043:14055   */\n      swap1\n      pop\n        /* \"#utility.yul\":14001:14061   */\n      swap2\n      swap1\n      pop\n      jump\t// out\n        /* \"#utility.yul\":14067:14209   */\n    tag_129:\n        /* \"#utility.yul\":14117:14126   */\n      0x00\n        /* \"#utility.yul\":14150:14203   */\n      tag_265\n        /* \"#utility.yul\":14168:14202   */\n      tag_266\n        /* \"#utility.yul\":14177:14201   */\n      tag_267\n        /* \"#utility.yul\":14195:14200   */\n      dup5\n        /* \"#utility.yul\":14177:14201   */\n      tag_127\n      jump\t// in\n    tag_267:\n        /* \"#utility.yul\":14168:14202   */\n      tag_128\n      jump\t// in\n    tag_266:\n        /* \"#utility.yul\":14150:14203   */\n      tag_127\n      jump\t// in\n    tag_265:\n        /* \"#utility.yul\":14137:14203   */\n      swap1\n      pop\n        /* \"#utility.yul\":14067:14209   */\n      swap2\n      swap1\n      pop\n      jump\t// out\n        /* \"#utility.yul\":14215:14290   */\n    tag_130:\n        /* \"#utility.yul\":14258:14261   */\n      0x00\n        /* \"#utility.yul\":14279:14284   */\n      dup2\n        /* \"#utility.yul\":14272:14284   */\n      swap1\n      pop\n        /* \"#utility.yul\":14215:14290   */\n      swap2\n      swap1\n      pop\n      jump\t// out\n        /* \"#utility.yul\":14296:14565   */\n    tag_131:\n        /* \"#utility.yul\":14406:14445   */\n      tag_270\n        /* \"#utility.yul\":14437:14444   */\n      dup4\n        /* \"#utility.yul\":14406:14445   */\n      tag_129\n      jump\t// in\n    tag_270:\n        /* \"#utility.yul\":14467:14558   */\n      tag_271\n        /* \"#utility.yul\":14516:14557   */\n      tag_272\n        /* \"#utility.yul\":14540:14556   */\n      dup3\n        /* \"#utility.yul\":14516:14557   */\n      tag_130\n      jump\t// in\n    tag_272:\n        /* \"#utility.yul\":14508:14514   */\n      dup5\n        /* \"#utility.yul\":14501:14505   */\n      dup5\n        /* \"#utility.yul\":14495:14506   */\n      sload\n        /* \"#utility.yul\":14467:14558   */\n      tag_126\n      jump\t// in\n    tag_271:\n        /* \"#utility.yul\":14461:14465   */\n      dup3\n        /* \"#utility.yul\":14454:14559   */\n      sstore\n        /* \"#utility.yul\":14372:14565   */\n      pop\n        /* \"#utility.yul\":14296:14565   */\n      pop\n      pop\n      pop\n      jump\t// out\n        /* \"#utility.yul\":14571:14644   */\n    tag_132:\n        /* \"#utility.yul\":14616:14619   */\n      0x00\n        /* \"#utility.yul\":14571:14644   */\n      swap1\n      jump\t// out\n        /* \"#utility.yul\":14650:14839   */\n    tag_133:\n        /* \"#utility.yul\":14727:14759   */\n      tag_275\n      tag_132\n      jump\t// in\n    tag_275:\n        /* \"#utility.yul\":14768:14833   */\n      tag_276\n        /* \"#utility.yul\":14826:14832   */\n      dup2\n        /* \"#utility.yul\":14818:14824   */\n      dup5\n        /* \"#utility.yul\":14812:14816   */\n      dup5\n        /* \"#utility.yul\":14768:14833   */\n      tag_131\n      jump\t// in\n    tag_276:\n        /* \"#utility.yul\":14703:14839   */\n      pop\n        /* \"#utility.yul\":14650:14839   */\n      pop\n      pop\n      jump\t// out\n        /* \"#utility.yul\":14845:15031   */\n    tag_134:\n        /* \"#utility.yul\":14905:15025   */\n    tag_278:\n        /* \"#utility.yul\":14922:14925   */\n      dup2\n        /* \"#utility.yul\":14915:14920   */\n      dup2\n        /* \"#utility.yul\":14912:14926   */\n      lt\n        /* \"#utility.yul\":14905:15025   */\n      iszero\n      tag_280\n      jumpi\n        /* \"#utility.yul\":14976:15015   */\n      tag_281\n        /* \"#utility.yul\":15013:15014   */\n      0x00\n        /* \"#utility.yul\":15006:15011   */\n      dup3\n        /* \"#utility.yul\":14976:15015   */\n      tag_133\n      jump\t// in\n    tag_281:\n        /* \"#utility.yul\":14949:14950   */\n      0x01\n        /* \"#utility.yul\":14942:14947   */\n      dup2\n        /* \"#utility.yul\":14938:14951   */\n      add\n        /* \"#utility.yul\":14929:14951   */\n      swap1\n      pop\n        /* \"#utility.yul\":14905:15025   */\n      jump(tag_278)\n    tag_280:\n        /* \"#utility.yul\":14845:15031   */\n      pop\n      pop\n      jump\t// out\n        /* \"#utility.yul\":15037:15580   */\n    tag_135:\n        /* \"#utility.yul\":15138:15140   */\n      0x1f\n        /* \"#utility.yul\":15133:15136   */\n      dup3\n        /* \"#utility.yul\":15130:15141   */\n      gt\n        /* \"#utility.yul\":15127:15573   */\n      iszero\n      tag_283\n      jumpi\n        /* \"#utility.yul\":15172:15210   */\n      tag_284\n        /* \"#utility.yul\":15204:15209   */\n      dup2\n        /* \"#utility.yul\":15172:15210   */\n      tag_123\n      jump\t// in\n    tag_284:\n        /* \"#utility.yul\":15256:15285   */\n      tag_285\n        /* \"#utility.yul\":15274:15284   */\n      dup5\n        /* \"#utility.yul\":15256:15285   */\n      tag_124\n      jump\t// in\n    tag_285:\n        /* \"#utility.yul\":15246:15254   */\n      dup2\n        /* \"#utility.yul\":15242:15286   */\n      add\n        /* \"#utility.yul\":15439:15441   */\n      0x20\n        /* \"#utility.yul\":15427:15437   */\n      dup6\n        /* \"#utility.yul\":15424:15442   */\n      lt\n        /* \"#utility.yul\":15421:15470   */\n      iszero\n      tag_286\n      jumpi\n        /* \"#utility.yul\":15460:15468   */\n      dup2\n        /* \"#utility.yul\":15445:15468   */\n      swap1\n      pop\n        /* \"#utility.yul\":15421:15470   */\n    tag_286:\n        /* \"#utility.yul\":15483:15563   */\n      tag_287\n        /* \"#utility.yul\":15539:15561   */\n      tag_288\n        /* \"#utility.yul\":15557:15560   */\n      dup6\n        /* \"#utility.yul\":15539:15561   */\n      tag_124\n      jump\t// in\n    tag_288:\n        /* \"#utility.yul\":15529:15537   */\n      dup4\n        /* \"#utility.yul\":15525:15562   */\n      add\n        /* \"#utility.yul\":15512:15523   */\n      dup3\n        /* \"#utility.yul\":15483:15563   */\n      tag_134\n      jump\t// in\n    tag_287:\n        /* \"#utility.yul\":15142:15573   */\n      pop\n      pop\n        /* \"#utility.yul\":15127:15573   */\n    tag_283:\n        /* \"#utility.yul\":15037:15580   */\n      pop\n      pop\n      pop\n      jump\t// out\n        /* \"#utility.yul\":15586:15703   */\n    tag_136:\n        /* \"#utility.yul\":15640:15648   */\n      0x00\n        /* \"#utility.yul\":15690:15695   */\n      dup3\n        /* \"#utility.yul\":15684:15688   */\n      dup3\n        /* \"#utility.yul\":15680:15696   */\n      shr\n        /* \"#utility.yul\":15659:15696   */\n      swap1\n      pop\n        /* \"#utility.yul\":15586:15703   */\n      swap3\n      swap2\n      pop\n      pop\n      jump\t// out\n        /* \"#utility.yul\":15709:15878   */\n    tag_137:\n        /* \"#utility.yul\":15753:15759   */\n      0x00\n        /* \"#utility.yul\":15786:15837   */\n      tag_291\n        /* \"#utility.yul\":15834:15835   */\n      0x00\n        /* \"#utility.yul\":15830:15836   */\n      not\n        /* \"#utility.yul\":15822:15827   */\n      dup5\n        /* \"#utility.yul\":15819:15820   */\n      0x08\n        /* \"#utility.yul\":15815:15828   */\n      mul\n        /* \"#utility.yul\":15786:15837   */\n      tag_136\n      jump\t// in\n    tag_291:\n        /* \"#utility.yul\":15782:15838   */\n      not\n        /* \"#utility.yul\":15867:15871   */\n      dup1\n        /* \"#utility.yul\":15861:15865   */\n      dup4\n        /* \"#utility.yul\":15857:15872   */\n      and\n        /* \"#utility.yul\":15847:15872   */\n      swap2\n      pop\n        /* \"#utility.yul\":15760:15878   */\n      pop\n        /* \"#utility.yul\":15709:15878   */\n      swap3\n      swap2\n      pop\n      pop\n      jump\t// out\n        /* \"#utility.yul\":15883:16178   */\n    tag_138:\n        /* \"#utility.yul\":15959:15963   */\n      0x00\n        /* \"#utility.yul\":16105:16134   */\n      tag_293\n        /* \"#utility.yul\":16130:16133   */\n      dup4\n        /* \"#utility.yul\":16124:16128   */\n      dup4\n        /* \"#utility.yul\":16105:16134   */\n      tag_137\n      jump\t// in\n    tag_293:\n        /* \"#utility.yul\":16097:16134   */\n      swap2\n      pop\n        /* \"#utility.yul\":16167:16170   */\n      dup3\n        /* \"#utility.yul\":16164:16165   */\n      0x02\n        /* \"#utility.yul\":16160:16171   */\n      mul\n        /* \"#utility.yul\":16154:16158   */\n      dup3\n        /* \"#utility.yul\":16151:16172   */\n      or\n        /* \"#utility.yul\":16143:16172   */\n      swap1\n      pop\n        /* \"#utility.yul\":15883:16178   */\n      swap3\n      swap2\n      pop\n      pop\n      jump\t// out\n        /* \"#utility.yul\":16183:17578   */\n    tag_74:\n        /* \"#utility.yul\":16300:16337   */\n      tag_295\n        /* \"#utility.yul\":16333:16336   */\n      dup3\n        /* \"#utility.yul\":16300:16337   */\n      tag_93\n      jump\t// in\n    tag_295:\n        /* \"#utility.yul\":16402:16420   */\n      0xffffffffffffffff\n        /* \"#utility.yul\":16394:16400   */\n      dup2\n        /* \"#utility.yul\":16391:16421   */\n      gt\n        /* \"#utility.yul\":16388:16444   */\n      iszero\n      tag_296\n      jumpi\n        /* \"#utility.yul\":16424:16442   */\n      tag_297\n      tag_102\n      jump\t// in\n    tag_297:\n        /* \"#utility.yul\":16388:16444   */\n    tag_296:\n        /* \"#utility.yul\":16468:16506   */\n      tag_298\n        /* \"#utility.yul\":16500:16504   */\n      dup3\n        /* \"#utility.yul\":16494:16505   */\n      sload\n        /* \"#utility.yul\":16468:16506   */\n      tag_34\n      jump\t// in\n    tag_298:\n        /* \"#utility.yul\":16553:16620   */\n      tag_299\n        /* \"#utility.yul\":16613:16619   */\n      dup3\n        /* \"#utility.yul\":16605:16611   */\n      dup3\n        /* \"#utility.yul\":16599:16603   */\n      dup6\n        /* \"#utility.yul\":16553:16620   */\n      tag_135\n      jump\t// in\n    tag_299:\n        /* \"#utility.yul\":16647:16648   */\n      0x00\n        /* \"#utility.yul\":16671:16675   */\n      0x20\n        /* \"#utility.yul\":16658:16675   */\n      swap1\n      pop\n        /* \"#utility.yul\":16703:16705   */\n      0x1f\n        /* \"#utility.yul\":16695:16701   */\n      dup4\n        /* \"#utility.yul\":16692:16706   */\n      gt\n        /* \"#utility.yul\":16720:16721   */\n      0x01\n        /* \"#utility.yul\":16715:17333   */\n      dup2\n      eq\n      tag_301\n      jumpi\n        /* \"#utility.yul\":17377:17378   */\n      0x00\n        /* \"#utility.yul\":17394:17400   */\n      dup5\n        /* \"#utility.yul\":17391:17468   */\n      iszero\n      tag_302\n      jumpi\n        /* \"#utility.yul\":17443:17452   */\n      dup3\n        /* \"#utility.yul\":17438:17441   */\n      dup8\n        /* \"#utility.yul\":17434:17453   */\n      add\n        /* \"#utility.yul\":17428:17454   */\n      mload\n        /* \"#utility.yul\":17419:17454   */\n      swap1\n      pop\n        /* \"#utility.yul\":17391:17468   */\n    tag_302:\n        /* \"#utility.yul\":17494:17561   */\n      tag_303\n        /* \"#utility.yul\":17554:17560   */\n      dup6\n        /* \"#utility.yul\":17547:17552   */\n      dup3\n        /* \"#utility.yul\":17494:17561   */\n      tag_138\n      jump\t// in\n    tag_303:\n        /* \"#utility.yul\":17488:17492   */\n      dup7\n        /* \"#utility.yul\":17481:17562   */\n      sstore\n        /* \"#utility.yul\":17350:17572   */\n      pop\n        /* \"#utility.yul\":16685:17572   */\n      jump(tag_300)\n        /* \"#utility.yul\":16715:17333   */\n    tag_301:\n        /* \"#utility.yul\":16767:16771   */\n      0x1f\n        /* \"#utility.yul\":16763:16772   */\n      not\n        /* \"#utility.yul\":16755:16761   */\n      dup5\n        /* \"#utility.yul\":16751:16773   */\n      and\n        /* \"#utility.yul\":16801:16838   */\n      tag_304\n        /* \"#utility.yul\":16833:16837   */\n      dup7\n        /* \"#utility.yul\":16801:16838   */\n      tag_123\n      jump\t// in\n    tag_304:\n        /* \"#utility.yul\":16860:16861   */\n      0x00\n        /* \"#utility.yul\":16874:17082   */\n    tag_305:\n        /* \"#utility.yul\":16888:16895   */\n      dup3\n        /* \"#utility.yul\":16885:16886   */\n      dup2\n        /* \"#utility.yul\":16882:16896   */\n      lt\n        /* \"#utility.yul\":16874:17082   */\n      iszero\n      tag_307\n      jumpi\n        /* \"#utility.yul\":16967:16976   */\n      dup5\n        /* \"#utility.yul\":16962:16965   */\n      dup10\n        /* \"#utility.yul\":16958:16977   */\n      add\n        /* \"#utility.yul\":16952:16978   */\n      mload\n        /* \"#utility.yul\":16944:16950   */\n      dup3\n        /* \"#utility.yul\":16937:16979   */\n      sstore\n        /* \"#utility.yul\":17018:17019   */\n      0x01\n        /* \"#utility.yul\":17010:17016   */\n      dup3\n        /* \"#utility.yul\":17006:17020   */\n      add\n        /* \"#utility.yul\":16996:17020   */\n      swap2\n      pop\n        /* \"#utility.yul\":17065:17067   */\n      0x20\n        /* \"#utility.yul\":17054:17063   */\n      dup6\n        /* \"#utility.yul\":17050:17068   */\n      add\n        /* \"#utility.yul\":17037:17068   */\n      swap5\n      pop\n        /* \"#utility.yul\":16911:16915   */\n      0x20\n        /* \"#utility.yul\":16908:16909   */\n      dup2\n        /* \"#utility.yul\":16904:16916   */\n      add\n        /* \"#utility.yul\":16899:16916   */\n      swap1\n      pop\n        /* \"#utility.yul\":16874:17082   */\n      jump(tag_305)\n    tag_307:\n        /* \"#utility.yul\":17110:17116   */\n      dup7\n        /* \"#utility.yul\":17101:17108   */\n      dup4\n        /* \"#utility.yul\":17098:17117   */\n      lt\n        /* \"#utility.yul\":17095:17274   */\n      iszero\n      tag_308\n      jumpi\n        /* \"#utility.yul\":17168:17177   */\n      dup5\n        /* \"#utility.yul\":17163:17166   */\n      dup10\n        /* \"#utility.yul\":17159:17178   */\n      add\n        /* \"#utility.yul\":17153:17179   */\n      mload\n        /* \"#utility.yul\":17211:17259   */\n      tag_309\n        /* \"#utility.yul\":17253:17257   */\n      0x1f\n        /* \"#utility.yul\":17245:17251   */\n      dup10\n        /* \"#utility.yul\":17241:17258   */\n      and\n        /* \"#utility.yul\":17230:17239   */\n      dup3\n        /* \"#utility.yul\":17211:17259   */\n      tag_137\n      jump\t// in\n    tag_309:\n        /* \"#utility.yul\":17203:17209   */\n      dup4\n        /* \"#utility.yul\":17196:17260   */\n      sstore\n        /* \"#utility.yul\":17118:17274   */\n      pop\n        /* \"#utility.yul\":17095:17274   */\n    tag_308:\n        /* \"#utility.yul\":17320:17321   */\n      0x01\n        /* \"#utility.yul\":17316:17317   */\n      0x02\n        /* \"#utility.yul\":17308:17314   */\n      dup9\n        /* \"#utility.yul\":17304:17318   */\n      mul\n        /* \"#utility.yul\":17300:17322   */\n      add\n        /* \"#utility.yul\":17294:17298   */\n      dup9\n        /* \"#utility.yul\":17287:17323   */\n      sstore\n        /* \"#utility.yul\":16722:17333   */\n      pop\n      pop\n      pop\n        /* \"#utility.yul\":16685:17572   */\n    tag_300:\n      pop\n        /* \"#utility.yul\":16275:17578   */\n      pop\n      pop\n      pop\n        /* \"#utility.yul\":16183:17578   */\n      pop\n      pop\n      jump\t// out\n        /* \"#utility.yul\":17584:17897   */\n    tag_78:\n        /* \"#utility.yul\":17697:17701   */\n      0x00\n        /* \"#utility.yul\":17735:17737   */\n      0x20\n        /* \"#utility.yul\":17724:17733   */\n      dup3\n        /* \"#utility.yul\":17720:17738   */\n      add\n        /* \"#utility.yul\":17712:17738   */\n      swap1\n      pop\n        /* \"#utility.yul\":17784:17793   */\n      dup2\n        /* \"#utility.yul\":17778:17782   */\n      dup2\n        /* \"#utility.yul\":17774:17794   */\n      sub\n        /* \"#utility.yul\":17770:17771   */\n      0x00\n        /* \"#utility.yul\":17759:17768   */\n      dup4\n        /* \"#utility.yul\":17755:17772   */\n      add\n        /* \"#utility.yul\":17748:17795   */\n      mstore\n        /* \"#utility.yul\":17812:17890   */\n      tag_311\n        /* \"#utility.yul\":17885:17889   */\n      dup2\n        /* \"#utility.yul\":17876:17882   */\n      dup5\n        /* \"#utility.yul\":17812:17890   */\n      tag_97\n      jump\t// in\n    tag_311:\n        /* \"#utility.yul\":17804:17890   */\n      swap1\n      pop\n        /* \"#utility.yul\":17584:17897   */\n      swap3\n      swap2\n      pop\n      pop\n      jump\t// out\n        /* \"#utility.yul\":17903:18077   */\n    tag_139:\n        /* \"#utility.yul\":18043:18069   */\n      0x5665726966696572206e6f7420617574686f72697a65642e0000000000000000\n        /* \"#utility.yul\":18039:18040   */\n      0x00\n        /* \"#utility.yul\":18031:18037   */\n      dup3\n        /* \"#utility.yul\":18027:18041   */\n      add\n        /* \"#utility.yul\":18020:18070   */\n      mstore\n        /* \"#utility.yul\":17903:18077   */\n      pop\n      jump\t// out\n        /* \"#utility.yul\":18083:18449   */\n    tag_140:\n        /* \"#utility.yul\":18225:18228   */\n      0x00\n        /* \"#utility.yul\":18246:18313   */\n      tag_314\n        /* \"#utility.yul\":18310:18312   */\n      0x18\n        /* \"#utility.yul\":18305:18308   */\n      dup4\n        /* \"#utility.yul\":18246:18313   */\n      tag_94\n      jump\t// in\n    tag_314:\n        /* \"#utility.yul\":18239:18313   */\n      swap2\n      pop\n        /* \"#utility.yul\":18322:18415   */\n      tag_315\n        /* \"#utility.yul\":18411:18414   */\n      dup3\n        /* \"#utility.yul\":18322:18415   */\n      tag_139\n      jump\t// in\n    tag_315:\n        /* \"#utility.yul\":18440:18442   */\n      0x20\n        /* \"#utility.yul\":18435:18438   */\n      dup3\n        /* \"#utility.yul\":18431:18443   */\n      add\n        /* \"#utility.yul\":18424:18443   */\n      swap1\n      pop\n        /* \"#utility.yul\":18083:18449   */\n      swap2\n      swap1\n      pop\n      jump\t// out\n        /* \"#utility.yul\":18455:18874   */\n    tag_85:\n        /* \"#utility.yul\":18621:18625   */\n      0x00\n        /* \"#utility.yul\":18659:18661   */\n      0x20\n        /* \"#utility.yul\":18648:18657   */\n      dup3\n        /* \"#utility.yul\":18644:18662   */\n      add\n        /* \"#utility.yul\":18636:18662   */\n      swap1\n      pop\n        /* \"#utility.yul\":18708:18717   */\n      dup2\n        /* \"#utility.yul\":18702:18706   */\n      dup2\n        /* \"#utility.yul\":18698:18718   */\n      sub\n        /* \"#utility.yul\":18694:18695   */\n      0x00\n        /* \"#utility.yul\":18683:18692   */\n      dup4\n        /* \"#utility.yul\":18679:18696   */\n      add\n        /* \"#utility.yul\":18672:18719   */\n      mstore\n        /* \"#utility.yul\":18736:18867   */\n      tag_317\n        /* \"#utility.yul\":18862:18866   */\n      dup2\n        /* \"#utility.yul\":18736:18867   */\n      tag_140\n      jump\t// in\n    tag_317:\n        /* \"#utility.yul\":18728:18867   */\n      swap1\n      pop\n        /* \"#utility.yul\":18455:18874   */\n      swap2\n      swap1\n      pop\n      jump\t// out\n\n    auxdata: 0xa26469706673582212200d8a03dda77d45800a8bc9823717ffe83e8078a10a2ff3c9f39ce4a43cc99ed064736f6c634300081a0033\n}\n",
				"bytecode": {
					"linkReferences": {},
					"object": "6080604052348015600e575f80fd5b50335f806101000a81548173ffffffffffffffffffffffffffffffffffffffff021916908373ffffffffffffffffffffffffffffffffffffffff1602179055506115918061005b5f395ff3fe608060405234801561000f575f80fd5b5060043610610060575f3560e01c80632fea7b81146100645780639000b3d614610097578063b5b90fd9146100b3578063bdc95b32146100cf578063ca2dfd0a146100eb578063ce606ee014610107575b5f80fd5b61007e60048036038101906100799190610c47565b610125565b60405161008e9493929190610cfc565b60405180910390f35b6100b160048036038101906100ac9190610c47565b6103d2565b005b6100cd60048036038101906100c89190610c47565b610584565b005b6100e960048036038101906100e49190610e79565b6107dc565b005b61010560048036038101906101009190610c47565b610a09565b005b61010f610bb9565b60405161011c9190610f2c565b60405180910390f35b6060805f805f60015f8773ffffffffffffffffffffffffffffffffffffffff1673ffffffffffffffffffffffffffffffffffffffff1681526020019081526020015f206040518060c00160405290815f8201805461018290610f72565b80601f01602080910402602001604051908101604052809291908181526020018280546101ae90610f72565b80156101f95780601f106101d0576101008083540402835291602001916101f9565b820191905f5260205f20905b8154815290600101906020018083116101dc57829003601f168201915b5050505050815260200160018201805461021290610f72565b80601f016020809104026020016040519081016040528092919081815260200182805461023e90610f72565b80156102895780601f1061026057610100808354040283529160200191610289565b820191905f5260205f20905b81548152906001019060200180831161026c57829003601f168201915b505050505081526020016002820180546102a290610f72565b80601f01602080910402602001604051908101604052809291908181526020018280546102ce90610f72565b80156103195780601f106102f057610100808354040283529160200191610319565b820191905f5260205f20905b8154815290600101906020018083116102fc57829003601f168201915b50505050508152602001600382015f9054906101000a900460ff161515151581526020016003820160019054906101000a900460ff161515151581526020016003820160029054906101000a900473ffffffffffffffffffffffffffffffffffffffff1673ffffffffffffffffffffffffffffffffffffffff1673ffffffffffffffffffffffffffffffffffffffff16815250509050805f01518160200151826060015183608001519450945094509450509193509193565b5f8054906101000a900473ffffffffffffffffffffffffffffffffffffffff1673ffffffffffffffffffffffffffffffffffffffff163373ffffffffffffffffffffffffffffffffffffffff161461045f576040517f08c379a000000000000000000000000000000000000000000000000000000000815260040161045690611012565b60405180910390fd5b60025f8273ffffffffffffffffffffffffffffffffffffffff1673ffffffffffffffffffffffffffffffffffffffff1681526020019081526020015f205f9054906101000a900460ff16156104e9576040517f08c379a00000000000000000000000000000000000000000000000000000000081526004016104e09061107a565b60405180910390fd5b600160025f8373ffffffffffffffffffffffffffffffffffffffff1673ffffffffffffffffffffffffffffffffffffffff1681526020019081526020015f205f6101000a81548160ff0219169083151502179055508073ffffffffffffffffffffffffffffffffffffffff167f6d05492139c5ea989514a5d2150c028041e5c087e2a39967f67dc7d2655adb8160405160405180910390a250565b60025f3373ffffffffffffffffffffffffffffffffffffffff1673ffffffffffffffffffffffffffffffffffffffff1681526020019081526020015f205f9054906101000a900460ff1661060d576040517f08c379a000000000000000000000000000000000000000000000000000000000815260040161060490611108565b60405180910390fd5b60015f8273ffffffffffffffffffffffffffffffffffffffff1673ffffffffffffffffffffffffffffffffffffffff1681526020019081526020015f206003015f9054906101000a900460ff161561069a576040517f08c379a000000000000000000000000000000000000000000000000000000000815260040161069190611170565b60405180910390fd5b60015f8273ffffffffffffffffffffffffffffffffffffffff1673ffffffffffffffffffffffffffffffffffffffff1681526020019081526020015f2060030160019054906101000a900460ff1615610728576040517f08c379a000000000000000000000000000000000000000000000000000000000815260040161071f906111d8565b60405180910390fd5b6001805f8373ffffffffffffffffffffffffffffffffffffffff1673ffffffffffffffffffffffffffffffffffffffff1681526020019081526020015f206003015f6101000a81548160ff0219169083151502179055503373ffffffffffffffffffffffffffffffffffffffff168173ffffffffffffffffffffffffffffffffffffffff167f25e4589528aa4c1dcd5c91ab0cc06e99d962229fb9e54162702032772a1655a060405160405180910390a350565b5f60015f3373ffffffffffffffffffffffffffffffffffffffff1673ffffffffffffffffffffffffffffffffffffffff1681526020019081526020015f205f01805461082790610f72565b905014610869576040517f08c379a000000000000000000000000000000000000000000000000000000000815260040161086090611240565b60405180910390fd5b6040518060c001604052808481526020018381526020018281526020015f151581526020015f151581526020013373ffffffffffffffffffffffffffffffffffffffff1681525060015f3373ffffffffffffffffffffffffffffffffffffffff1673ffffffffffffffffffffffffffffffffffffffff1681526020019081526020015f205f820151815f0190816109009190611404565b5060208201518160010190816109169190611404565b50604082015181600201908161092c9190611404565b506060820151816003015f6101000a81548160ff02191690831515021790555060808201518160030160016101000a81548160ff02191690831515021790555060a08201518160030160026101000a81548173ffffffffffffffffffffffffffffffffffffffff021916908373ffffffffffffffffffffffffffffffffffffffff1602179055509050503373ffffffffffffffffffffffffffffffffffffffff167f9b6805eb7a1bee8a797c79c5f2a39a182f3d37f8b8cce5ec42371000c8115dfd846040516109fc91906114d3565b60405180910390a2505050565b5f8054906101000a900473ffffffffffffffffffffffffffffffffffffffff1673ffffffffffffffffffffffffffffffffffffffff163373ffffffffffffffffffffffffffffffffffffffff1614610a96576040517f08c379a0000000000000000000000000000000000000000000000000000000008152600401610a8d90611012565b60405180910390fd5b60025f8273ffffffffffffffffffffffffffffffffffffffff1673ffffffffffffffffffffffffffffffffffffffff1681526020019081526020015f205f9054906101000a900460ff16610b1f576040517f08c379a0000000000000000000000000000000000000000000000000000000008152600401610b169061153d565b60405180910390fd5b5f60025f8373ffffffffffffffffffffffffffffffffffffffff1673ffffffffffffffffffffffffffffffffffffffff1681526020019081526020015f205f6101000a81548160ff0219169083151502179055508073ffffffffffffffffffffffffffffffffffffffff167f44a3cd4eb5cc5748f6169df057b1cb2ae4c383e87cd94663c430e095d4cba42460405160405180910390a250565b5f8054906101000a900473ffffffffffffffffffffffffffffffffffffffff1681565b5f604051905090565b5f80fd5b5f80fd5b5f73ffffffffffffffffffffffffffffffffffffffff82169050919050565b5f610c1682610bed565b9050919050565b610c2681610c0c565b8114610c30575f80fd5b50565b5f81359050610c4181610c1d565b92915050565b5f60208284031215610c5c57610c5b610be5565b5b5f610c6984828501610c33565b91505092915050565b5f81519050919050565b5f82825260208201905092915050565b8281835e5f83830152505050565b5f601f19601f8301169050919050565b5f610cb482610c72565b610cbe8185610c7c565b9350610cce818560208601610c8c565b610cd781610c9a565b840191505092915050565b5f8115159050919050565b610cf681610ce2565b82525050565b5f6080820190508181035f830152610d148187610caa565b90508181036020830152610d288186610caa565b9050610d376040830185610ced565b610d446060830184610ced565b95945050505050565b5f80fd5b5f80fd5b7f4e487b71000000000000000000000000000000000000000000000000000000005f52604160045260245ffd5b610d8b82610c9a565b810181811067ffffffffffffffff82111715610daa57610da9610d55565b5b80604052505050565b5f610dbc610bdc565b9050610dc88282610d82565b919050565b5f67ffffffffffffffff821115610de757610de6610d55565b5b610df082610c9a565b9050602081019050919050565b828183375f83830152505050565b5f610e1d610e1884610dcd565b610db3565b905082815260208101848484011115610e3957610e38610d51565b5b610e44848285610dfd565b509392505050565b5f82601f830112610e6057610e5f610d4d565b5b8135610e70848260208601610e0b565b91505092915050565b5f805f60608486031215610e9057610e8f610be5565b5b5f84013567ffffffffffffffff811115610ead57610eac610be9565b5b610eb986828701610e4c565b935050602084013567ffffffffffffffff811115610eda57610ed9610be9565b5b610ee686828701610e4c565b925050604084013567ffffffffffffffff811115610f0757610f06610be9565b5b610f1386828701610e4c565b9150509250925092565b610f2681610c0c565b82525050565b5f602082019050610f3f5f830184610f1d565b92915050565b7f4e487b71000000000000000000000000000000000000000000000000000000005f52602260045260245ffd5b5f6002820490506001821680610f8957607f821691505b602082108103610f9c57610f9b610f45565b5b50919050565b7f4f6e6c792074686520636f6e7472616374206f776e65722063616e20706572665f8201527f6f726d207468697320616374696f6e2e00000000000000000000000000000000602082015250565b5f610ffc603083610c7c565b915061100782610fa2565b604082019050919050565b5f6020820190508181035f83015261102981610ff0565b9050919050565b7f566572696669657220697320616c72656164792061646465642e0000000000005f82015250565b5f611064601a83610c7c565b915061106f82611030565b602082019050919050565b5f6020820190508181035f83015261109181611058565b9050919050565b7f4f6e6c7920616e20617574686f72697a65642076657269666965722063616e205f8201527f706572666f726d207468697320616374696f6e2e000000000000000000000000602082015250565b5f6110f2603483610c7c565b91506110fd82611098565b604082019050919050565b5f6020820190508181035f83015261111f816110e6565b9050919050565b7f4964656e7469747920697320616c7265616479207665726966696564000000005f82015250565b5f61115a601c83610c7c565b915061116582611126565b602082019050919050565b5f6020820190508181035f8301526111878161114e565b9050919050565b7f4964656e7469747920686173206265656e207265766f6b6564000000000000005f82015250565b5f6111c2601983610c7c565b91506111cd8261118e565b602082019050919050565b5f6020820190508181035f8301526111ef816111b6565b9050919050565b7f4964656e7469747920616c7265616479207265676973746572656400000000005f82015250565b5f61122a601b83610c7c565b9150611235826111f6565b602082019050919050565b5f6020820190508181035f8301526112578161121e565b9050919050565b5f819050815f5260205f209050919050565b5f6020601f8301049050919050565b5f82821b905092915050565b5f600883026112ba7fffffffffffffffffffffffffffffffffffffffffffffffffffffffffffffffff8261127f565b6112c4868361127f565b95508019841693508086168417925050509392505050565b5f819050919050565b5f819050919050565b5f6113086113036112fe846112dc565b6112e5565b6112dc565b9050919050565b5f819050919050565b611321836112ee565b61133561132d8261130f565b84845461128b565b825550505050565b5f90565b61134961133d565b611354818484611318565b505050565b5b818110156113775761136c5f82611341565b60018101905061135a565b5050565b601f8211156113bc5761138d8161125e565b61139684611270565b810160208510156113a5578190505b6113b96113b185611270565b830182611359565b50505b505050565b5f82821c905092915050565b5f6113dc5f19846008026113c1565b1980831691505092915050565b5f6113f483836113cd565b9150826002028217905092915050565b61140d82610c72565b67ffffffffffffffff81111561142657611425610d55565b5b6114308254610f72565b61143b82828561137b565b5f60209050601f83116001811461146c575f841561145a578287015190505b61146485826113e9565b8655506114cb565b601f19841661147a8661125e565b5f5b828110156114a15784890151825560018201915060208501945060208101905061147c565b868310156114be57848901516114ba601f8916826113cd565b8355505b6001600288020188555050505b505050505050565b5f6020820190508181035f8301526114eb8184610caa565b905092915050565b7f5665726966696572206e6f7420617574686f72697a65642e00000000000000005f82015250565b5f611527601883610c7c565b9150611532826114f3565b602082019050919050565b5f6020820190508181035f8301526115548161151b565b905091905056fea26469706673582212200d8a03dda77d45800a8bc9823717ffe83e8078a10a2ff3c9f39ce4a43cc99ed064736f6c634300081a0033",
					"opcodes": "PUSH1 0x80 PUSH1 0x40 MSTORE CALLVALUE DUP1 ISZERO PUSH1 0xE JUMPI PUSH0 DUP1 REVERT JUMPDEST POP CALLER PUSH0 DUP1 PUSH2 0x100 EXP DUP2 SLOAD DUP2 PUSH20 0xFFFFFFFFFFFFFFFFFFFFFFFFFFFFFFFFFFFFFFFF MUL NOT AND SWAP1 DUP4 PUSH20 0xFFFFFFFFFFFFFFFFFFFFFFFFFFFFFFFFFFFFFFFF AND MUL OR SWAP1 SSTORE POP PUSH2 0x1591 DUP1 PUSH2 0x5B PUSH0 CODECOPY PUSH0 RETURN INVALID PUSH1 0x80 PUSH1 0x40 MSTORE CALLVALUE DUP1 ISZERO PUSH2 0xF JUMPI PUSH0 DUP1 REVERT JUMPDEST POP PUSH1 0x4 CALLDATASIZE LT PUSH2 0x60 JUMPI PUSH0 CALLDATALOAD PUSH1 0xE0 SHR DUP1 PUSH4 0x2FEA7B81 EQ PUSH2 0x64 JUMPI DUP1 PUSH4 0x9000B3D6 EQ PUSH2 0x97 JUMPI DUP1 PUSH4 0xB5B90FD9 EQ PUSH2 0xB3 JUMPI DUP1 PUSH4 0xBDC95B32 EQ PUSH2 0xCF JUMPI DUP1 PUSH4 0xCA2DFD0A EQ PUSH2 0xEB JUMPI DUP1 PUSH4 0xCE606EE0 EQ PUSH2 0x107 JUMPI JUMPDEST PUSH0 DUP1 REVERT JUMPDEST PUSH2 0x7E PUSH1 0x4 DUP1 CALLDATASIZE SUB DUP2 ADD SWAP1 PUSH2 0x79 SWAP2 SWAP1 PUSH2 0xC47 JUMP JUMPDEST PUSH2 0x125 JUMP JUMPDEST PUSH1 0x40 MLOAD PUSH2 0x8E SWAP5 SWAP4 SWAP3 SWAP2 SWAP1 PUSH2 0xCFC JUMP JUMPDEST PUSH1 0x40 MLOAD DUP1 SWAP2 SUB SWAP1 RETURN JUMPDEST PUSH2 0xB1 PUSH1 0x4 DUP1 CALLDATASIZE SUB DUP2 ADD SWAP1 PUSH2 0xAC SWAP2 SWAP1 PUSH2 0xC47 JUMP JUMPDEST PUSH2 0x3D2 JUMP JUMPDEST STOP JUMPDEST PUSH2 0xCD PUSH1 0x4 DUP1 CALLDATASIZE SUB DUP2 ADD SWAP1 PUSH2 0xC8 SWAP2 SWAP1 PUSH2 0xC47 JUMP JUMPDEST PUSH2 0x584 JUMP JUMPDEST STOP JUMPDEST PUSH2 0xE9 PUSH1 0x4 DUP1 CALLDATASIZE SUB DUP2 ADD SWAP1 PUSH2 0xE4 SWAP2 SWAP1 PUSH2 0xE79 JUMP JUMPDEST PUSH2 0x7DC JUMP JUMPDEST STOP JUMPDEST PUSH2 0x105 PUSH1 0x4 DUP1 CALLDATASIZE SUB DUP2 ADD SWAP1 PUSH2 0x100 SWAP2 SWAP1 PUSH2 0xC47 JUMP JUMPDEST PUSH2 0xA09 JUMP JUMPDEST STOP JUMPDEST PUSH2 0x10F PUSH2 0xBB9 JUMP JUMPDEST PUSH1 0x40 MLOAD PUSH2 0x11C SWAP2 SWAP1 PUSH2 0xF2C JUMP JUMPDEST PUSH1 0x40 MLOAD DUP1 SWAP2 SUB SWAP1 RETURN JUMPDEST PUSH1 0x60 DUP1 PUSH0 DUP1 PUSH0 PUSH1 0x1 PUSH0 DUP8 PUSH20 0xFFFFFFFFFFFFFFFFFFFFFFFFFFFFFFFFFFFFFFFF AND PUSH20 0xFFFFFFFFFFFFFFFFFFFFFFFFFFFFFFFFFFFFFFFF AND DUP2 MSTORE PUSH1 0x20 ADD SWAP1 DUP2 MSTORE PUSH1 0x20 ADD PUSH0 KECCAK256 PUSH1 0x40 MLOAD DUP1 PUSH1 0xC0 ADD PUSH1 0x40 MSTORE SWAP1 DUP2 PUSH0 DUP3 ADD DUP1 SLOAD PUSH2 0x182 SWAP1 PUSH2 0xF72 JUMP JUMPDEST DUP1 PUSH1 0x1F ADD PUSH1 0x20 DUP1 SWAP2 DIV MUL PUSH1 0x20 ADD PUSH1 0x40 MLOAD SWAP1 DUP2 ADD PUSH1 0x40 MSTORE DUP1 SWAP3 SWAP2 SWAP1 DUP2 DUP2 MSTORE PUSH1 0x20 ADD DUP3 DUP1 SLOAD PUSH2 0x1AE SWAP1 PUSH2 0xF72 JUMP JUMPDEST DUP1 ISZERO PUSH2 0x1F9 JUMPI DUP1 PUSH1 0x1F LT PUSH2 0x1D0 JUMPI PUSH2 0x100 DUP1 DUP4 SLOAD DIV MUL DUP4 MSTORE SWAP2 PUSH1 0x20 ADD SWAP2 PUSH2 0x1F9 JUMP JUMPDEST DUP3 ADD SWAP2 SWAP1 PUSH0 MSTORE PUSH1 0x20 PUSH0 KECCAK256 SWAP1 JUMPDEST DUP2 SLOAD DUP2 MSTORE SWAP1 PUSH1 0x1 ADD SWAP1 PUSH1 0x20 ADD DUP1 DUP4 GT PUSH2 0x1DC JUMPI DUP3 SWAP1 SUB PUSH1 0x1F AND DUP3 ADD SWAP2 JUMPDEST POP POP POP POP POP DUP2 MSTORE PUSH1 0x20 ADD PUSH1 0x1 DUP3 ADD DUP1 SLOAD PUSH2 0x212 SWAP1 PUSH2 0xF72 JUMP JUMPDEST DUP1 PUSH1 0x1F ADD PUSH1 0x20 DUP1 SWAP2 DIV MUL PUSH1 0x20 ADD PUSH1 0x40 MLOAD SWAP1 DUP2 ADD PUSH1 0x40 MSTORE DUP1 SWAP3 SWAP2 SWAP1 DUP2 DUP2 MSTORE PUSH1 0x20 ADD DUP3 DUP1 SLOAD PUSH2 0x23E SWAP1 PUSH2 0xF72 JUMP JUMPDEST DUP1 ISZERO PUSH2 0x289 JUMPI DUP1 PUSH1 0x1F LT PUSH2 0x260 JUMPI PUSH2 0x100 DUP1 DUP4 SLOAD DIV MUL DUP4 MSTORE SWAP2 PUSH1 0x20 ADD SWAP2 PUSH2 0x289 JUMP JUMPDEST DUP3 ADD SWAP2 SWAP1 PUSH0 MSTORE PUSH1 0x20 PUSH0 KECCAK256 SWAP1 JUMPDEST DUP2 SLOAD DUP2 MSTORE SWAP1 PUSH1 0x1 ADD SWAP1 PUSH1 0x20 ADD DUP1 DUP4 GT PUSH2 0x26C JUMPI DUP3 SWAP1 SUB PUSH1 0x1F AND DUP3 ADD SWAP2 JUMPDEST POP POP POP POP POP DUP2 MSTORE PUSH1 0x20 ADD PUSH1 0x2 DUP3 ADD DUP1 SLOAD PUSH2 0x2A2 SWAP1 PUSH2 0xF72 JUMP JUMPDEST DUP1 PUSH1 0x1F ADD PUSH1 0x20 DUP1 SWAP2 DIV MUL PUSH1 0x20 ADD PUSH1 0x40 MLOAD SWAP1 DUP2 ADD PUSH1 0x40 MSTORE DUP1 SWAP3 SWAP2 SWAP1 DUP2 DUP2 MSTORE PUSH1 0x20 ADD DUP3 DUP1 SLOAD PUSH2 0x2CE SWAP1 PUSH2 0xF72 JUMP JUMPDEST DUP1 ISZERO PUSH2 0x319 JUMPI DUP1 PUSH1 0x1F LT PUSH2 0x2F0 JUMPI PUSH2 0x100 DUP1 DUP4 SLOAD DIV MUL DUP4 MSTORE SWAP2 PUSH1 0x20 ADD SWAP2 PUSH2 0x319 JUMP JUMPDEST DUP3 ADD SWAP2 SWAP1 PUSH0 MSTORE PUSH1 0x20 PUSH0 KECCAK256 SWAP1 JUMPDEST DUP2 SLOAD DUP2 MSTORE SWAP1 PUSH1 0x1 ADD SWAP1 PUSH1 0x20 ADD DUP1 DUP4 GT PUSH2 0x2FC JUMPI DUP3 SWAP1 SUB PUSH1 0x1F AND DUP3 ADD SWAP2 JUMPDEST POP POP POP POP POP DUP2 MSTORE PUSH1 0x20 ADD PUSH1 0x3 DUP3 ADD PUSH0 SWAP1 SLOAD SWAP1 PUSH2 0x100 EXP SWAP1 DIV PUSH1 0xFF AND ISZERO ISZERO ISZERO ISZERO DUP2 MSTORE PUSH1 0x20 ADD PUSH1 0x3 DUP3 ADD PUSH1 0x1 SWAP1 SLOAD SWAP1 PUSH2 0x100 EXP SWAP1 DIV PUSH1 0xFF AND ISZERO ISZERO ISZERO ISZERO DUP2 MSTORE PUSH1 0x20 ADD PUSH1 0x3 DUP3 ADD PUSH1 0x2 SWAP1 SLOAD SWAP1 PUSH2 0x100 EXP SWAP1 DIV PUSH20 0xFFFFFFFFFFFFFFFFFFFFFFFFFFFFFFFFFFFFFFFF AND PUSH20 0xFFFFFFFFFFFFFFFFFFFFFFFFFFFFFFFFFFFFFFFF AND PUSH20 0xFFFFFFFFFFFFFFFFFFFFFFFFFFFFFFFFFFFFFFFF AND DUP2 MSTORE POP POP SWAP1 POP DUP1 PUSH0 ADD MLOAD DUP2 PUSH1 0x20 ADD MLOAD DUP3 PUSH1 0x60 ADD MLOAD DUP4 PUSH1 0x80 ADD MLOAD SWAP5 POP SWAP5 POP SWAP5 POP SWAP5 POP POP SWAP2 SWAP4 POP SWAP2 SWAP4 JUMP JUMPDEST PUSH0 DUP1 SLOAD SWAP1 PUSH2 0x100 EXP SWAP1 DIV PUSH20 0xFFFFFFFFFFFFFFFFFFFFFFFFFFFFFFFFFFFFFFFF AND PUSH20 0xFFFFFFFFFFFFFFFFFFFFFFFFFFFFFFFFFFFFFFFF AND CALLER PUSH20 0xFFFFFFFFFFFFFFFFFFFFFFFFFFFFFFFFFFFFFFFF AND EQ PUSH2 0x45F JUMPI PUSH1 0x40 MLOAD PUSH32 0x8C379A000000000000000000000000000000000000000000000000000000000 DUP2 MSTORE PUSH1 0x4 ADD PUSH2 0x456 SWAP1 PUSH2 0x1012 JUMP JUMPDEST PUSH1 0x40 MLOAD DUP1 SWAP2 SUB SWAP1 REVERT JUMPDEST PUSH1 0x2 PUSH0 DUP3 PUSH20 0xFFFFFFFFFFFFFFFFFFFFFFFFFFFFFFFFFFFFFFFF AND PUSH20 0xFFFFFFFFFFFFFFFFFFFFFFFFFFFFFFFFFFFFFFFF AND DUP2 MSTORE PUSH1 0x20 ADD SWAP1 DUP2 MSTORE PUSH1 0x20 ADD PUSH0 KECCAK256 PUSH0 SWAP1 SLOAD SWAP1 PUSH2 0x100 EXP SWAP1 DIV PUSH1 0xFF AND ISZERO PUSH2 0x4E9 JUMPI PUSH1 0x40 MLOAD PUSH32 0x8C379A000000000000000000000000000000000000000000000000000000000 DUP2 MSTORE PUSH1 0x4 ADD PUSH2 0x4E0 SWAP1 PUSH2 0x107A JUMP JUMPDEST PUSH1 0x40 MLOAD DUP1 SWAP2 SUB SWAP1 REVERT JUMPDEST PUSH1 0x1 PUSH1 0x2 PUSH0 DUP4 PUSH20 0xFFFFFFFFFFFFFFFFFFFFFFFFFFFFFFFFFFFFFFFF AND PUSH20 0xFFFFFFFFFFFFFFFFFFFFFFFFFFFFFFFFFFFFFFFF AND DUP2 MSTORE PUSH1 0x20 ADD SWAP1 DUP2 MSTORE PUSH1 0x20 ADD PUSH0 KECCAK256 PUSH0 PUSH2 0x100 EXP DUP2 SLOAD DUP2 PUSH1 0xFF MUL NOT AND SWAP1 DUP4 ISZERO ISZERO MUL OR SWAP1 SSTORE POP DUP1 PUSH20 0xFFFFFFFFFFFFFFFFFFFFFFFFFFFFFFFFFFFFFFFF AND PUSH32 0x6D05492139C5EA989514A5D2150C028041E5C087E2A39967F67DC7D2655ADB81 PUSH1 0x40 MLOAD PUSH1 0x40 MLOAD DUP1 SWAP2 SUB SWAP1 LOG2 POP JUMP JUMPDEST PUSH1 0x2 PUSH0 CALLER PUSH20 0xFFFFFFFFFFFFFFFFFFFFFFFFFFFFFFFFFFFFFFFF AND PUSH20 0xFFFFFFFFFFFFFFFFFFFFFFFFFFFFFFFFFFFFFFFF AND DUP2 MSTORE PUSH1 0x20 ADD SWAP1 DUP2 MSTORE PUSH1 0x20 ADD PUSH0 KECCAK256 PUSH0 SWAP1 SLOAD SWAP1 PUSH2 0x100 EXP SWAP1 DIV PUSH1 0xFF AND PUSH2 0x60D JUMPI PUSH1 0x40 MLOAD PUSH32 0x8C379A000000000000000000000000000000000000000000000000000000000 DUP2 MSTORE PUSH1 0x4 ADD PUSH2 0x604 SWAP1 PUSH2 0x1108 JUMP JUMPDEST PUSH1 0x40 MLOAD DUP1 SWAP2 SUB SWAP1 REVERT JUMPDEST PUSH1 0x1 PUSH0 DUP3 PUSH20 0xFFFFFFFFFFFFFFFFFFFFFFFFFFFFFFFFFFFFFFFF AND PUSH20 0xFFFFFFFFFFFFFFFFFFFFFFFFFFFFFFFFFFFFFFFF AND DUP2 MSTORE PUSH1 0x20 ADD SWAP1 DUP2 MSTORE PUSH1 0x20 ADD PUSH0 KECCAK256 PUSH1 0x3 ADD PUSH0 SWAP1 SLOAD SWAP1 PUSH2 0x100 EXP SWAP1 DIV PUSH1 0xFF AND ISZERO PUSH2 0x69A JUMPI PUSH1 0x40 MLOAD PUSH32 0x8C379A000000000000000000000000000000000000000000000000000000000 DUP2 MSTORE PUSH1 0x4 ADD PUSH2 0x691 SWAP1 PUSH2 0x1170 JUMP JUMPDEST PUSH1 0x40 MLOAD DUP1 SWAP2 SUB SWAP1 REVERT JUMPDEST PUSH1 0x1 PUSH0 DUP3 PUSH20 0xFFFFFFFFFFFFFFFFFFFFFFFFFFFFFFFFFFFFFFFF AND PUSH20 0xFFFFFFFFFFFFFFFFFFFFFFFFFFFFFFFFFFFFFFFF AND DUP2 MSTORE PUSH1 0x20 ADD SWAP1 DUP2 MSTORE PUSH1 0x20 ADD PUSH0 KECCAK256 PUSH1 0x3 ADD PUSH1 0x1 SWAP1 SLOAD SWAP1 PUSH2 0x100 EXP SWAP1 DIV PUSH1 0xFF AND ISZERO PUSH2 0x728 JUMPI PUSH1 0x40 MLOAD PUSH32 0x8C379A000000000000000000000000000000000000000000000000000000000 DUP2 MSTORE PUSH1 0x4 ADD PUSH2 0x71F SWAP1 PUSH2 0x11D8 JUMP JUMPDEST PUSH1 0x40 MLOAD DUP1 SWAP2 SUB SWAP1 REVERT JUMPDEST PUSH1 0x1 DUP1 PUSH0 DUP4 PUSH20 0xFFFFFFFFFFFFFFFFFFFFFFFFFFFFFFFFFFFFFFFF AND PUSH20 0xFFFFFFFFFFFFFFFFFFFFFFFFFFFFFFFFFFFFFFFF AND DUP2 MSTORE PUSH1 0x20 ADD SWAP1 DUP2 MSTORE PUSH1 0x20 ADD PUSH0 KECCAK256 PUSH1 0x3 ADD PUSH0 PUSH2 0x100 EXP DUP2 SLOAD DUP2 PUSH1 0xFF MUL NOT AND SWAP1 DUP4 ISZERO ISZERO MUL OR SWAP1 SSTORE POP CALLER PUSH20 0xFFFFFFFFFFFFFFFFFFFFFFFFFFFFFFFFFFFFFFFF AND DUP2 PUSH20 0xFFFFFFFFFFFFFFFFFFFFFFFFFFFFFFFFFFFFFFFF AND PUSH32 0x25E4589528AA4C1DCD5C91AB0CC06E99D962229FB9E54162702032772A1655A0 PUSH1 0x40 MLOAD PUSH1 0x40 MLOAD DUP1 SWAP2 SUB SWAP1 LOG3 POP JUMP JUMPDEST PUSH0 PUSH1 0x1 PUSH0 CALLER PUSH20 0xFFFFFFFFFFFFFFFFFFFFFFFFFFFFFFFFFFFFFFFF AND PUSH20 0xFFFFFFFFFFFFFFFFFFFFFFFFFFFFFFFFFFFFFFFF AND DUP2 MSTORE PUSH1 0x20 ADD SWAP1 DUP2 MSTORE PUSH1 0x20 ADD PUSH0 KECCAK256 PUSH0 ADD DUP1 SLOAD PUSH2 0x827 SWAP1 PUSH2 0xF72 JUMP JUMPDEST SWAP1 POP EQ PUSH2 0x869 JUMPI PUSH1 0x40 MLOAD PUSH32 0x8C379A000000000000000000000000000000000000000000000000000000000 DUP2 MSTORE PUSH1 0x4 ADD PUSH2 0x860 SWAP1 PUSH2 0x1240 JUMP JUMPDEST PUSH1 0x40 MLOAD DUP1 SWAP2 SUB SWAP1 REVERT JUMPDEST PUSH1 0x40 MLOAD DUP1 PUSH1 0xC0 ADD PUSH1 0x40 MSTORE DUP1 DUP5 DUP2 MSTORE PUSH1 0x20 ADD DUP4 DUP2 MSTORE PUSH1 0x20 ADD DUP3 DUP2 MSTORE PUSH1 0x20 ADD PUSH0 ISZERO ISZERO DUP2 MSTORE PUSH1 0x20 ADD PUSH0 ISZERO ISZERO DUP2 MSTORE PUSH1 0x20 ADD CALLER PUSH20 0xFFFFFFFFFFFFFFFFFFFFFFFFFFFFFFFFFFFFFFFF AND DUP2 MSTORE POP PUSH1 0x1 PUSH0 CALLER PUSH20 0xFFFFFFFFFFFFFFFFFFFFFFFFFFFFFFFFFFFFFFFF AND PUSH20 0xFFFFFFFFFFFFFFFFFFFFFFFFFFFFFFFFFFFFFFFF AND DUP2 MSTORE PUSH1 0x20 ADD SWAP1 DUP2 MSTORE PUSH1 0x20 ADD PUSH0 KECCAK256 PUSH0 DUP3 ADD MLOAD DUP2 PUSH0 ADD SWAP1 DUP2 PUSH2 0x900 SWAP2 SWAP1 PUSH2 0x1404 JUMP JUMPDEST POP PUSH1 0x20 DUP3 ADD MLOAD DUP2 PUSH1 0x1 ADD SWAP1 DUP2 PUSH2 0x916 SWAP2 SWAP1 PUSH2 0x1404 JUMP JUMPDEST POP PUSH1 0x40 DUP3 ADD MLOAD DUP2 PUSH1 0x2 ADD SWAP1 DUP2 PUSH2 0x92C SWAP2 SWAP1 PUSH2 0x1404 JUMP JUMPDEST POP PUSH1 0x60 DUP3 ADD MLOAD DUP2 PUSH1 0x3 ADD PUSH0 PUSH2 0x100 EXP DUP2 SLOAD DUP2 PUSH1 0xFF MUL NOT AND SWAP1 DUP4 ISZERO ISZERO MUL OR SWAP1 SSTORE POP PUSH1 0x80 DUP3 ADD MLOAD DUP2 PUSH1 0x3 ADD PUSH1 0x1 PUSH2 0x100 EXP DUP2 SLOAD DUP2 PUSH1 0xFF MUL NOT AND SWAP1 DUP4 ISZERO ISZERO MUL OR SWAP1 SSTORE POP PUSH1 0xA0 DUP3 ADD MLOAD DUP2 PUSH1 0x3 ADD PUSH1 0x2 PUSH2 0x100 EXP DUP2 SLOAD DUP2 PUSH20 0xFFFFFFFFFFFFFFFFFFFFFFFFFFFFFFFFFFFFFFFF MUL NOT AND SWAP1 DUP4 PUSH20 0xFFFFFFFFFFFFFFFFFFFFFFFFFFFFFFFFFFFFFFFF AND MUL OR SWAP1 SSTORE POP SWAP1 POP POP CALLER PUSH20 0xFFFFFFFFFFFFFFFFFFFFFFFFFFFFFFFFFFFFFFFF AND PUSH32 0x9B6805EB7A1BEE8A797C79C5F2A39A182F3D37F8B8CCE5EC42371000C8115DFD DUP5 PUSH1 0x40 MLOAD PUSH2 0x9FC SWAP2 SWAP1 PUSH2 0x14D3 JUMP JUMPDEST PUSH1 0x40 MLOAD DUP1 SWAP2 SUB SWAP1 LOG2 POP POP POP JUMP JUMPDEST PUSH0 DUP1 SLOAD SWAP1 PUSH2 0x100 EXP SWAP1 DIV PUSH20 0xFFFFFFFFFFFFFFFFFFFFFFFFFFFFFFFFFFFFFFFF AND PUSH20 0xFFFFFFFFFFFFFFFFFFFFFFFFFFFFFFFFFFFFFFFF AND CALLER PUSH20 0xFFFFFFFFFFFFFFFFFFFFFFFFFFFFFFFFFFFFFFFF AND EQ PUSH2 0xA96 JUMPI PUSH1 0x40 MLOAD PUSH32 0x8C379A000000000000000000000000000000000000000000000000000000000 DUP2 MSTORE PUSH1 0x4 ADD PUSH2 0xA8D SWAP1 PUSH2 0x1012 JUMP JUMPDEST PUSH1 0x40 MLOAD DUP1 SWAP2 SUB SWAP1 REVERT JUMPDEST PUSH1 0x2 PUSH0 DUP3 PUSH20 0xFFFFFFFFFFFFFFFFFFFFFFFFFFFFFFFFFFFFFFFF AND PUSH20 0xFFFFFFFFFFFFFFFFFFFFFFFFFFFFFFFFFFFFFFFF AND DUP2 MSTORE PUSH1 0x20 ADD SWAP1 DUP2 MSTORE PUSH1 0x20 ADD PUSH0 KECCAK256 PUSH0 SWAP1 SLOAD SWAP1 PUSH2 0x100 EXP SWAP1 DIV PUSH1 0xFF AND PUSH2 0xB1F JUMPI PUSH1 0x40 MLOAD PUSH32 0x8C379A000000000000000000000000000000000000000000000000000000000 DUP2 MSTORE PUSH1 0x4 ADD PUSH2 0xB16 SWAP1 PUSH2 0x153D JUMP JUMPDEST PUSH1 0x40 MLOAD DUP1 SWAP2 SUB SWAP1 REVERT JUMPDEST PUSH0 PUSH1 0x2 PUSH0 DUP4 PUSH20 0xFFFFFFFFFFFFFFFFFFFFFFFFFFFFFFFFFFFFFFFF AND PUSH20 0xFFFFFFFFFFFFFFFFFFFFFFFFFFFFFFFFFFFFFFFF AND DUP2 MSTORE PUSH1 0x20 ADD SWAP1 DUP2 MSTORE PUSH1 0x20 ADD PUSH0 KECCAK256 PUSH0 PUSH2 0x100 EXP DUP2 SLOAD DUP2 PUSH1 0xFF MUL NOT AND SWAP1 DUP4 ISZERO ISZERO MUL OR SWAP1 SSTORE POP DUP1 PUSH20 0xFFFFFFFFFFFFFFFFFFFFFFFFFFFFFFFFFFFFFFFF AND PUSH32 0x44A3CD4EB5CC5748F6169DF057B1CB2AE4C383E87CD94663C430E095D4CBA424 PUSH1 0x40 MLOAD PUSH1 0x40 MLOAD DUP1 SWAP2 SUB SWAP1 LOG2 POP JUMP JUMPDEST PUSH0 DUP1 SLOAD SWAP1 PUSH2 0x100 EXP SWAP1 DIV PUSH20 0xFFFFFFFFFFFFFFFFFFFFFFFFFFFFFFFFFFFFFFFF AND DUP2 JUMP JUMPDEST PUSH0 PUSH1 0x40 MLOAD SWAP1 POP SWAP1 JUMP JUMPDEST PUSH0 DUP1 REVERT JUMPDEST PUSH0 DUP1 REVERT JUMPDEST PUSH0 PUSH20 0xFFFFFFFFFFFFFFFFFFFFFFFFFFFFFFFFFFFFFFFF DUP3 AND SWAP1 POP SWAP2 SWAP1 POP JUMP JUMPDEST PUSH0 PUSH2 0xC16 DUP3 PUSH2 0xBED JUMP JUMPDEST SWAP1 POP SWAP2 SWAP1 POP JUMP JUMPDEST PUSH2 0xC26 DUP2 PUSH2 0xC0C JUMP JUMPDEST DUP2 EQ PUSH2 0xC30 JUMPI PUSH0 DUP1 REVERT JUMPDEST POP JUMP JUMPDEST PUSH0 DUP2 CALLDATALOAD SWAP1 POP PUSH2 0xC41 DUP2 PUSH2 0xC1D JUMP JUMPDEST SWAP3 SWAP2 POP POP JUMP JUMPDEST PUSH0 PUSH1 0x20 DUP3 DUP5 SUB SLT ISZERO PUSH2 0xC5C JUMPI PUSH2 0xC5B PUSH2 0xBE5 JUMP JUMPDEST JUMPDEST PUSH0 PUSH2 0xC69 DUP5 DUP3 DUP6 ADD PUSH2 0xC33 JUMP JUMPDEST SWAP2 POP POP SWAP3 SWAP2 POP POP JUMP JUMPDEST PUSH0 DUP2 MLOAD SWAP1 POP SWAP2 SWAP1 POP JUMP JUMPDEST PUSH0 DUP3 DUP3 MSTORE PUSH1 0x20 DUP3 ADD SWAP1 POP SWAP3 SWAP2 POP POP JUMP JUMPDEST DUP3 DUP2 DUP4 MCOPY PUSH0 DUP4 DUP4 ADD MSTORE POP POP POP JUMP JUMPDEST PUSH0 PUSH1 0x1F NOT PUSH1 0x1F DUP4 ADD AND SWAP1 POP SWAP2 SWAP1 POP JUMP JUMPDEST PUSH0 PUSH2 0xCB4 DUP3 PUSH2 0xC72 JUMP JUMPDEST PUSH2 0xCBE DUP2 DUP6 PUSH2 0xC7C JUMP JUMPDEST SWAP4 POP PUSH2 0xCCE DUP2 DUP6 PUSH1 0x20 DUP7 ADD PUSH2 0xC8C JUMP JUMPDEST PUSH2 0xCD7 DUP2 PUSH2 0xC9A JUMP JUMPDEST DUP5 ADD SWAP2 POP POP SWAP3 SWAP2 POP POP JUMP JUMPDEST PUSH0 DUP2 ISZERO ISZERO SWAP1 POP SWAP2 SWAP1 POP JUMP JUMPDEST PUSH2 0xCF6 DUP2 PUSH2 0xCE2 JUMP JUMPDEST DUP3 MSTORE POP POP JUMP JUMPDEST PUSH0 PUSH1 0x80 DUP3 ADD SWAP1 POP DUP2 DUP2 SUB PUSH0 DUP4 ADD MSTORE PUSH2 0xD14 DUP2 DUP8 PUSH2 0xCAA JUMP JUMPDEST SWAP1 POP DUP2 DUP2 SUB PUSH1 0x20 DUP4 ADD MSTORE PUSH2 0xD28 DUP2 DUP7 PUSH2 0xCAA JUMP JUMPDEST SWAP1 POP PUSH2 0xD37 PUSH1 0x40 DUP4 ADD DUP6 PUSH2 0xCED JUMP JUMPDEST PUSH2 0xD44 PUSH1 0x60 DUP4 ADD DUP5 PUSH2 0xCED JUMP JUMPDEST SWAP6 SWAP5 POP POP POP POP POP JUMP JUMPDEST PUSH0 DUP1 REVERT JUMPDEST PUSH0 DUP1 REVERT JUMPDEST PUSH32 0x4E487B7100000000000000000000000000000000000000000000000000000000 PUSH0 MSTORE PUSH1 0x41 PUSH1 0x4 MSTORE PUSH1 0x24 PUSH0 REVERT JUMPDEST PUSH2 0xD8B DUP3 PUSH2 0xC9A JUMP JUMPDEST DUP2 ADD DUP2 DUP2 LT PUSH8 0xFFFFFFFFFFFFFFFF DUP3 GT OR ISZERO PUSH2 0xDAA JUMPI PUSH2 0xDA9 PUSH2 0xD55 JUMP JUMPDEST JUMPDEST DUP1 PUSH1 0x40 MSTORE POP POP POP JUMP JUMPDEST PUSH0 PUSH2 0xDBC PUSH2 0xBDC JUMP JUMPDEST SWAP1 POP PUSH2 0xDC8 DUP3 DUP3 PUSH2 0xD82 JUMP JUMPDEST SWAP2 SWAP1 POP JUMP JUMPDEST PUSH0 PUSH8 0xFFFFFFFFFFFFFFFF DUP3 GT ISZERO PUSH2 0xDE7 JUMPI PUSH2 0xDE6 PUSH2 0xD55 JUMP JUMPDEST JUMPDEST PUSH2 0xDF0 DUP3 PUSH2 0xC9A JUMP JUMPDEST SWAP1 POP PUSH1 0x20 DUP2 ADD SWAP1 POP SWAP2 SWAP1 POP JUMP JUMPDEST DUP3 DUP2 DUP4 CALLDATACOPY PUSH0 DUP4 DUP4 ADD MSTORE POP POP POP JUMP JUMPDEST PUSH0 PUSH2 0xE1D PUSH2 0xE18 DUP5 PUSH2 0xDCD JUMP JUMPDEST PUSH2 0xDB3 JUMP JUMPDEST SWAP1 POP DUP3 DUP2 MSTORE PUSH1 0x20 DUP2 ADD DUP5 DUP5 DUP5 ADD GT ISZERO PUSH2 0xE39 JUMPI PUSH2 0xE38 PUSH2 0xD51 JUMP JUMPDEST JUMPDEST PUSH2 0xE44 DUP5 DUP3 DUP6 PUSH2 0xDFD JUMP JUMPDEST POP SWAP4 SWAP3 POP POP POP JUMP JUMPDEST PUSH0 DUP3 PUSH1 0x1F DUP4 ADD SLT PUSH2 0xE60 JUMPI PUSH2 0xE5F PUSH2 0xD4D JUMP JUMPDEST JUMPDEST DUP2 CALLDATALOAD PUSH2 0xE70 DUP5 DUP3 PUSH1 0x20 DUP7 ADD PUSH2 0xE0B JUMP JUMPDEST SWAP2 POP POP SWAP3 SWAP2 POP POP JUMP JUMPDEST PUSH0 DUP1 PUSH0 PUSH1 0x60 DUP5 DUP7 SUB SLT ISZERO PUSH2 0xE90 JUMPI PUSH2 0xE8F PUSH2 0xBE5 JUMP JUMPDEST JUMPDEST PUSH0 DUP5 ADD CALLDATALOAD PUSH8 0xFFFFFFFFFFFFFFFF DUP2 GT ISZERO PUSH2 0xEAD JUMPI PUSH2 0xEAC PUSH2 0xBE9 JUMP JUMPDEST JUMPDEST PUSH2 0xEB9 DUP7 DUP3 DUP8 ADD PUSH2 0xE4C JUMP JUMPDEST SWAP4 POP POP PUSH1 0x20 DUP5 ADD CALLDATALOAD PUSH8 0xFFFFFFFFFFFFFFFF DUP2 GT ISZERO PUSH2 0xEDA JUMPI PUSH2 0xED9 PUSH2 0xBE9 JUMP JUMPDEST JUMPDEST PUSH2 0xEE6 DUP7 DUP3 DUP8 ADD PUSH2 0xE4C JUMP JUMPDEST SWAP3 POP POP PUSH1 0x40 DUP5 ADD CALLDATALOAD PUSH8 0xFFFFFFFFFFFFFFFF DUP2 GT ISZERO PUSH2 0xF07 JUMPI PUSH2 0xF06 PUSH2 0xBE9 JUMP JUMPDEST JUMPDEST PUSH2 0xF13 DUP7 DUP3 DUP8 ADD PUSH2 0xE4C JUMP JUMPDEST SWAP2 POP POP SWAP3 POP SWAP3 POP SWAP3 JUMP JUMPDEST PUSH2 0xF26 DUP2 PUSH2 0xC0C JUMP JUMPDEST DUP3 MSTORE POP POP JUMP JUMPDEST PUSH0 PUSH1 0x20 DUP3 ADD SWAP1 POP PUSH2 0xF3F PUSH0 DUP4 ADD DUP5 PUSH2 0xF1D JUMP JUMPDEST SWAP3 SWAP2 POP POP JUMP JUMPDEST PUSH32 0x4E487B7100000000000000000000000000000000000000000000000000000000 PUSH0 MSTORE PUSH1 0x22 PUSH1 0x4 MSTORE PUSH1 0x24 PUSH0 REVERT JUMPDEST PUSH0 PUSH1 0x2 DUP3 DIV SWAP1 POP PUSH1 0x1 DUP3 AND DUP1 PUSH2 0xF89 JUMPI PUSH1 0x7F DUP3 AND SWAP2 POP JUMPDEST PUSH1 0x20 DUP3 LT DUP2 SUB PUSH2 0xF9C JUMPI PUSH2 0xF9B PUSH2 0xF45 JUMP JUMPDEST JUMPDEST POP SWAP2 SWAP1 POP JUMP JUMPDEST PUSH32 0x4F6E6C792074686520636F6E7472616374206F776E65722063616E2070657266 PUSH0 DUP3 ADD MSTORE PUSH32 0x6F726D207468697320616374696F6E2E00000000000000000000000000000000 PUSH1 0x20 DUP3 ADD MSTORE POP JUMP JUMPDEST PUSH0 PUSH2 0xFFC PUSH1 0x30 DUP4 PUSH2 0xC7C JUMP JUMPDEST SWAP2 POP PUSH2 0x1007 DUP3 PUSH2 0xFA2 JUMP JUMPDEST PUSH1 0x40 DUP3 ADD SWAP1 POP SWAP2 SWAP1 POP JUMP JUMPDEST PUSH0 PUSH1 0x20 DUP3 ADD SWAP1 POP DUP2 DUP2 SUB PUSH0 DUP4 ADD MSTORE PUSH2 0x1029 DUP2 PUSH2 0xFF0 JUMP JUMPDEST SWAP1 POP SWAP2 SWAP1 POP JUMP JUMPDEST PUSH32 0x566572696669657220697320616C72656164792061646465642E000000000000 PUSH0 DUP3 ADD MSTORE POP JUMP JUMPDEST PUSH0 PUSH2 0x1064 PUSH1 0x1A DUP4 PUSH2 0xC7C JUMP JUMPDEST SWAP2 POP PUSH2 0x106F DUP3 PUSH2 0x1030 JUMP JUMPDEST PUSH1 0x20 DUP3 ADD SWAP1 POP SWAP2 SWAP1 POP JUMP JUMPDEST PUSH0 PUSH1 0x20 DUP3 ADD SWAP1 POP DUP2 DUP2 SUB PUSH0 DUP4 ADD MSTORE PUSH2 0x1091 DUP2 PUSH2 0x1058 JUMP JUMPDEST SWAP1 POP SWAP2 SWAP1 POP JUMP JUMPDEST PUSH32 0x4F6E6C7920616E20617574686F72697A65642076657269666965722063616E20 PUSH0 DUP3 ADD MSTORE PUSH32 0x706572666F726D207468697320616374696F6E2E000000000000000000000000 PUSH1 0x20 DUP3 ADD MSTORE POP JUMP JUMPDEST PUSH0 PUSH2 0x10F2 PUSH1 0x34 DUP4 PUSH2 0xC7C JUMP JUMPDEST SWAP2 POP PUSH2 0x10FD DUP3 PUSH2 0x1098 JUMP JUMPDEST PUSH1 0x40 DUP3 ADD SWAP1 POP SWAP2 SWAP1 POP JUMP JUMPDEST PUSH0 PUSH1 0x20 DUP3 ADD SWAP1 POP DUP2 DUP2 SUB PUSH0 DUP4 ADD MSTORE PUSH2 0x111F DUP2 PUSH2 0x10E6 JUMP JUMPDEST SWAP1 POP SWAP2 SWAP1 POP JUMP JUMPDEST PUSH32 0x4964656E7469747920697320616C726561647920766572696669656400000000 PUSH0 DUP3 ADD MSTORE POP JUMP JUMPDEST PUSH0 PUSH2 0x115A PUSH1 0x1C DUP4 PUSH2 0xC7C JUMP JUMPDEST SWAP2 POP PUSH2 0x1165 DUP3 PUSH2 0x1126 JUMP JUMPDEST PUSH1 0x20 DUP3 ADD SWAP1 POP SWAP2 SWAP1 POP JUMP JUMPDEST PUSH0 PUSH1 0x20 DUP3 ADD SWAP1 POP DUP2 DUP2 SUB PUSH0 DUP4 ADD MSTORE PUSH2 0x1187 DUP2 PUSH2 0x114E JUMP JUMPDEST SWAP1 POP SWAP2 SWAP1 POP JUMP JUMPDEST PUSH32 0x4964656E7469747920686173206265656E207265766F6B656400000000000000 PUSH0 DUP3 ADD MSTORE POP JUMP JUMPDEST PUSH0 PUSH2 0x11C2 PUSH1 0x19 DUP4 PUSH2 0xC7C JUMP JUMPDEST SWAP2 POP PUSH2 0x11CD DUP3 PUSH2 0x118E JUMP JUMPDEST PUSH1 0x20 DUP3 ADD SWAP1 POP SWAP2 SWAP1 POP JUMP JUMPDEST PUSH0 PUSH1 0x20 DUP3 ADD SWAP1 POP DUP2 DUP2 SUB PUSH0 DUP4 ADD MSTORE PUSH2 0x11EF DUP2 PUSH2 0x11B6 JUMP JUMPDEST SWAP1 POP SWAP2 SWAP1 POP JUMP JUMPDEST PUSH32 0x4964656E7469747920616C726561647920726567697374657265640000000000 PUSH0 DUP3 ADD MSTORE POP JUMP JUMPDEST PUSH0 PUSH2 0x122A PUSH1 0x1B DUP4 PUSH2 0xC7C JUMP JUMPDEST SWAP2 POP PUSH2 0x1235 DUP3 PUSH2 0x11F6 JUMP JUMPDEST PUSH1 0x20 DUP3 ADD SWAP1 POP SWAP2 SWAP1 POP JUMP JUMPDEST PUSH0 PUSH1 0x20 DUP3 ADD SWAP1 POP DUP2 DUP2 SUB PUSH0 DUP4 ADD MSTORE PUSH2 0x1257 DUP2 PUSH2 0x121E JUMP JUMPDEST SWAP1 POP SWAP2 SWAP1 POP JUMP JUMPDEST PUSH0 DUP2 SWAP1 POP DUP2 PUSH0 MSTORE PUSH1 0x20 PUSH0 KECCAK256 SWAP1 POP SWAP2 SWAP1 POP JUMP JUMPDEST PUSH0 PUSH1 0x20 PUSH1 0x1F DUP4 ADD DIV SWAP1 POP SWAP2 SWAP1 POP JUMP JUMPDEST PUSH0 DUP3 DUP3 SHL SWAP1 POP SWAP3 SWAP2 POP POP JUMP JUMPDEST PUSH0 PUSH1 0x8 DUP4 MUL PUSH2 0x12BA PUSH32 0xFFFFFFFFFFFFFFFFFFFFFFFFFFFFFFFFFFFFFFFFFFFFFFFFFFFFFFFFFFFFFFFF DUP3 PUSH2 0x127F JUMP JUMPDEST PUSH2 0x12C4 DUP7 DUP4 PUSH2 0x127F JUMP JUMPDEST SWAP6 POP DUP1 NOT DUP5 AND SWAP4 POP DUP1 DUP7 AND DUP5 OR SWAP3 POP POP POP SWAP4 SWAP3 POP POP POP JUMP JUMPDEST PUSH0 DUP2 SWAP1 POP SWAP2 SWAP1 POP JUMP JUMPDEST PUSH0 DUP2 SWAP1 POP SWAP2 SWAP1 POP JUMP JUMPDEST PUSH0 PUSH2 0x1308 PUSH2 0x1303 PUSH2 0x12FE DUP5 PUSH2 0x12DC JUMP JUMPDEST PUSH2 0x12E5 JUMP JUMPDEST PUSH2 0x12DC JUMP JUMPDEST SWAP1 POP SWAP2 SWAP1 POP JUMP JUMPDEST PUSH0 DUP2 SWAP1 POP SWAP2 SWAP1 POP JUMP JUMPDEST PUSH2 0x1321 DUP4 PUSH2 0x12EE JUMP JUMPDEST PUSH2 0x1335 PUSH2 0x132D DUP3 PUSH2 0x130F JUMP JUMPDEST DUP5 DUP5 SLOAD PUSH2 0x128B JUMP JUMPDEST DUP3 SSTORE POP POP POP POP JUMP JUMPDEST PUSH0 SWAP1 JUMP JUMPDEST PUSH2 0x1349 PUSH2 0x133D JUMP JUMPDEST PUSH2 0x1354 DUP2 DUP5 DUP5 PUSH2 0x1318 JUMP JUMPDEST POP POP POP JUMP JUMPDEST JUMPDEST DUP2 DUP2 LT ISZERO PUSH2 0x1377 JUMPI PUSH2 0x136C PUSH0 DUP3 PUSH2 0x1341 JUMP JUMPDEST PUSH1 0x1 DUP2 ADD SWAP1 POP PUSH2 0x135A JUMP JUMPDEST POP POP JUMP JUMPDEST PUSH1 0x1F DUP3 GT ISZERO PUSH2 0x13BC JUMPI PUSH2 0x138D DUP2 PUSH2 0x125E JUMP JUMPDEST PUSH2 0x1396 DUP5 PUSH2 0x1270 JUMP JUMPDEST DUP2 ADD PUSH1 0x20 DUP6 LT ISZERO PUSH2 0x13A5 JUMPI DUP2 SWAP1 POP JUMPDEST PUSH2 0x13B9 PUSH2 0x13B1 DUP6 PUSH2 0x1270 JUMP JUMPDEST DUP4 ADD DUP3 PUSH2 0x1359 JUMP JUMPDEST POP POP JUMPDEST POP POP POP JUMP JUMPDEST PUSH0 DUP3 DUP3 SHR SWAP1 POP SWAP3 SWAP2 POP POP JUMP JUMPDEST PUSH0 PUSH2 0x13DC PUSH0 NOT DUP5 PUSH1 0x8 MUL PUSH2 0x13C1 JUMP JUMPDEST NOT DUP1 DUP4 AND SWAP2 POP POP SWAP3 SWAP2 POP POP JUMP JUMPDEST PUSH0 PUSH2 0x13F4 DUP4 DUP4 PUSH2 0x13CD JUMP JUMPDEST SWAP2 POP DUP3 PUSH1 0x2 MUL DUP3 OR SWAP1 POP SWAP3 SWAP2 POP POP JUMP JUMPDEST PUSH2 0x140D DUP3 PUSH2 0xC72 JUMP JUMPDEST PUSH8 0xFFFFFFFFFFFFFFFF DUP2 GT ISZERO PUSH2 0x1426 JUMPI PUSH2 0x1425 PUSH2 0xD55 JUMP JUMPDEST JUMPDEST PUSH2 0x1430 DUP3 SLOAD PUSH2 0xF72 JUMP JUMPDEST PUSH2 0x143B DUP3 DUP3 DUP6 PUSH2 0x137B JUMP JUMPDEST PUSH0 PUSH1 0x20 SWAP1 POP PUSH1 0x1F DUP4 GT PUSH1 0x1 DUP2 EQ PUSH2 0x146C JUMPI PUSH0 DUP5 ISZERO PUSH2 0x145A JUMPI DUP3 DUP8 ADD MLOAD SWAP1 POP JUMPDEST PUSH2 0x1464 DUP6 DUP3 PUSH2 0x13E9 JUMP JUMPDEST DUP7 SSTORE POP PUSH2 0x14CB JUMP JUMPDEST PUSH1 0x1F NOT DUP5 AND PUSH2 0x147A DUP7 PUSH2 0x125E JUMP JUMPDEST PUSH0 JUMPDEST DUP3 DUP2 LT ISZERO PUSH2 0x14A1 JUMPI DUP5 DUP10 ADD MLOAD DUP3 SSTORE PUSH1 0x1 DUP3 ADD SWAP2 POP PUSH1 0x20 DUP6 ADD SWAP5 POP PUSH1 0x20 DUP2 ADD SWAP1 POP PUSH2 0x147C JUMP JUMPDEST DUP7 DUP4 LT ISZERO PUSH2 0x14BE JUMPI DUP5 DUP10 ADD MLOAD PUSH2 0x14BA PUSH1 0x1F DUP10 AND DUP3 PUSH2 0x13CD JUMP JUMPDEST DUP4 SSTORE POP JUMPDEST PUSH1 0x1 PUSH1 0x2 DUP9 MUL ADD DUP9 SSTORE POP POP POP JUMPDEST POP POP POP POP POP POP JUMP JUMPDEST PUSH0 PUSH1 0x20 DUP3 ADD SWAP1 POP DUP2 DUP2 SUB PUSH0 DUP4 ADD MSTORE PUSH2 0x14EB DUP2 DUP5 PUSH2 0xCAA JUMP JUMPDEST SWAP1 POP SWAP3 SWAP2 POP POP JUMP JUMPDEST PUSH32 0x5665726966696572206E6F7420617574686F72697A65642E0000000000000000 PUSH0 DUP3 ADD MSTORE POP JUMP JUMPDEST PUSH0 PUSH2 0x1527 PUSH1 0x18 DUP4 PUSH2 0xC7C JUMP JUMPDEST SWAP2 POP PUSH2 0x1532 DUP3 PUSH2 0x14F3 JUMP JUMPDEST PUSH1 0x20 DUP3 ADD SWAP1 POP SWAP2 SWAP1 POP JUMP JUMPDEST PUSH0 PUSH1 0x20 DUP3 ADD SWAP1 POP DUP2 DUP2 SUB PUSH0 DUP4 ADD MSTORE PUSH2 0x1554 DUP2 PUSH2 0x151B JUMP JUMPDEST SWAP1 POP SWAP2 SWAP1 POP JUMP INVALID LOG2 PUSH5 0x6970667358 0x22 SLT KECCAK256 0xD DUP11 SUB 0xDD 0xA7 PUSH30 0x45800A8BC9823717FFE83E8078A10A2FF3C9F39CE4A43CC99ED064736F6C PUSH4 0x4300081A STOP CALLER "
				},
				"gasEstimates": {
					"creation": {
						"codeDepositCost": "1104200",
						"executionCost": "25410",
						"totalCost": "1129610"
					},
					"external": {
						"addVerifier(address)": "30373",
						"contractOwner()": "2593",
						"getIdentity(address)": "infinite",
						"registerIdentity(string,string,string)": "infinite",
						"removeVerifier(address)": "30435",
						"verifyIdentity(address)": "33163"
					}
				},
				"methodIdentifiers": {
					"addVerifier(address)": "9000b3d6",
					"contractOwner()": "ce606ee0",
					"getIdentity(address)": "2fea7b81",
					"registerIdentity(string,string,string)": "bdc95b32",
					"removeVerifier(address)": "ca2dfd0a",
					"verifyIdentity(address)": "b5b90fd9"
				}
			},
			"storageLayout": {
				"storage": [
					{
						"astId": 16,
						"contract": "IdentityManagement.sol:IdentityManagement",
						"label": "contractOwner",
						"offset": 0,
						"slot": "0",
						"type": "t_address"
					},
					{
						"astId": 21,
						"contract": "IdentityManagement.sol:IdentityManagement",
						"label": "identities",
						"offset": 0,
						"slot": "1",
						"type": "t_mapping(t_address,t_struct(Identity)14_storage)"
					},
					{
						"astId": 25,
						"contract": "IdentityManagement.sol:IdentityManagement",
						"label": "authorizedVerifiers",
						"offset": 0,
						"slot": "2",
						"type": "t_mapping(t_address,t_bool)"
					}
				],
				"types": {
					"t_address": {
						"encoding": "inplace",
						"label": "address",
						"numberOfBytes": "20"
					},
					"t_bool": {
						"encoding": "inplace",
						"label": "bool",
						"numberOfBytes": "1"
					},
					"t_mapping(t_address,t_bool)": {
						"encoding": "mapping",
						"key": "t_address",
						"label": "mapping(address => bool)",
						"numberOfBytes": "32",
						"value": "t_bool"
					},
					"t_mapping(t_address,t_struct(Identity)14_storage)": {
						"encoding": "mapping",
						"key": "t_address",
						"label": "mapping(address => struct IdentityManagement.Identity)",
						"numberOfBytes": "32",
						"value": "t_struct(Identity)14_storage"
					},
					"t_string_storage": {
						"encoding": "bytes",
						"label": "string",
						"numberOfBytes": "32"
					},
					"t_struct(Identity)14_storage": {
						"encoding": "inplace",
						"label": "struct IdentityManagement.Identity",
						"members": [
							{
								"astId": 3,
								"contract": "IdentityManagement.sol:IdentityManagement",
								"label": "name",
								"offset": 0,
								"slot": "0",
								"type": "t_string_storage"
							},
							{
								"astId": 5,
								"contract": "IdentityManagement.sol:IdentityManagement",
								"label": "email",
								"offset": 0,
								"slot": "1",
								"type": "t_string_storage"
							},
							{
								"astId": 7,
								"contract": "IdentityManagement.sol:IdentityManagement",
								"label": "verificationDocument",
								"offset": 0,
								"slot": "2",
								"type": "t_string_storage"
							},
							{
								"astId": 9,
								"contract": "IdentityManagement.sol:IdentityManagement",
								"label": "isVerified",
								"offset": 0,
								"slot": "3",
								"type": "t_bool"
							},
							{
								"astId": 11,
								"contract": "IdentityManagement.sol:IdentityManagement",
								"label": "isRevoked",
								"offset": 1,
								"slot": "3",
								"type": "t_bool"
							},
							{
								"astId": 13,
								"contract": "IdentityManagement.sol:IdentityManagement",
								"label": "owner",
								"offset": 2,
								"slot": "3",
								"type": "t_address"
							}
						],
						"numberOfBytes": "128"
					}
				}
			},
			"userdoc": {
				"kind": "user",
				"methods": {},
				"version": 1
			}
		}
	}
}